:100000000C9449000C944F050C9459050C9463050D
:100010000C946D050C9477050C9481050C94ED06F9
:100020000C948B050C9468000C9468000C94C40D1F
:100030000C94620F0C9419050C942F050C94CD05AB
:100040000C9408050C945E0D0C9468000C946800E8
:100050000C9468000C9468000C9468000C94680080
:100060000C9424050C9468000C9468000C946800AF
:100070000C9468000C9468000C9468000C94680060
:100080000C9468000C9468000C94680000081C181C
:10009000141011241FBECFEFD0E1DEBFCDBF11E0A1
:1000A000A0E0B1E0EAE5F2E300E00BBF02C0079098
:1000B0000D92AE30B107D9F712E0AEE0B1E001C069
:1000C0001D92A535B107E1F70E9459150C942C1922
:1000D0000C9400008FB7F894992708958FBF089566
:1000E000FC0182819927582F442781819927482B29
:1000F000592BCA01892F9927869586958370907010
:100100008230910559F08330910559F0892B19F40B
:1001100020E030E008C02CE93FEF05C022E030E0ED
:1001200002C028E030E0CA0184E0989F812D992721
:1001300011248230910559F08330910559F0892BB3
:1001400019F480E090E008C08CE99FEF05C082E0E0
:1001500090E002C088E090E0280F391F2A5F3F4FEF
:10016000CF01820F931F0895282F9FB7F89466231D
:1001700049F0E82FFF27E955FE4F8081882311F0D1
:1001800021E006C0E22FFF27E955FE4F608320E003
:10019000892F99278FBF822F99270895E82F8FB72E
:1001A000F894282F332790E0FF27E955FE4F8081F0
:1001B000861709F491E02FBF892F99270895882386
:1001C00011F06E9A08956E980895882311F06F9A31
:1001D00008956F98089580E00E94DF00BA9ABB9856
:1001E000B99AB89A6C9A80E00E94E5006B986A9878
:1001F00081E00E94DF00709A8DB18C7F8DB90895E7
:100200000F931F93CF93DF93182F8FB7F894C82FB6
:10021000DD270C2F61E080E00E94B400882321F0EC
:10022000CFBF85E090E024C0809105018823A1F430
:1002300080911401823081F409C082E0809314011E
:10024000109205010E94EB00B89AC0981093020129
:1002500080E00FBF99270CC080911401882369F3B7
:100260008FB7F89499271092A7018FBF81E0F1CF43
:10027000DF91CF911F910F910895282F9FB7F89488
:10028000E82FFF27E85CFE4F80818F3F81F4E091EB
:100290005302E21771F40BC02093450204C0FF27FC
:1002A000E85CFE4F20832093530220E007C025E046
:1002B00005C0809145028F3F91F7EECF892F992796
:1002C0008FBF822F992708951F93182F81E00E94D6
:1002D000DF001FB9779BFECF8FB199271F9108953B
:1002E0008F929F92AF92BF92CF92DF92EF92FF9246
:1002F0000F931F93CF93DF938FB7F8949927C090F4
:100300004E02D0904F028090A0019090A101C09128
:100310007601D091770120911D0130911E01EAE014
:10032000AE2EB12CAC0EBD1E2A153B0508F45901AA
:100330008FBF7401EC0EFD1E86010C0F1D1F14C033
:10034000C114D10419F0F801808101C080E00E943D
:1003500064018114910411F0F701808321960894BF
:10036000E11CF11C0F5F1F4FC5010197C817D9078A
:1003700038F381E00E94E5009FB7F894C114D104DE
:1003800031F0CC0EDD1EF60180818FB901C01FB89F
:10039000D0937701C0937601892F99278FBF80E092
:1003A00090E0DF91CF911F910F91FF90EF90DF9040
:1003B000CF90BF90AF909F908F9008952FB7F894F3
:1003C000332750931E0140931D0190934F02809359
:1003D0004E027093A1016093A001109277011092D8
:1003E00076012FBF452B29F08FB10E94700199270C
:1003F000089589E00E943D0180E090E008958FB764
:10040000F89499271092A9018FBF089580E88093EE
:100410003601109253011092480210924402109239
:100420004D010895CF93DF93FC0115A6DC019E9644
:10043000ED011B821A82198280E886A7DF91CF9195
:1004400008952F923F924F925F926F927F928F9278
:100450009F92AF92BF92CF92DF92EF92FF920F9353
:100460001F93CF93DF93CDB7DEB729970FB6F894DC
:10047000DEBF0FBECDBF6FB76983F89420905901DE
:1004800030905A0140905B0150905C0166247724C3
:100490008824BEE4AB2EA3E8BA2ECC24DD24EE24BF
:1004A000FF2400E010E0222D332D442D552D662D24
:1004B000772D882D90E00E940E172A833B834C8372
:1004C0005D836E837F8388879987822E932EA42EE7
:1004D000B52E2401350100E20E940C18A22EB32E85
:1004E000C42ED52EA3019201569547953795279591
:1004F0002A0D3B1D4C1D5D1D57FF05C05F772F5F0B
:100500003F4F4F4F5F4F2093590130935A01409313
:100510005B0150935C01E9818E2F99278FBFCA013F
:10052000B90129960FB6F894DEBF0FBECDBFDF919B
:10053000CF911F910F91FF90EF90DF90CF90BF90E0
:10054000AF909F908F907F906F905F904F903F9073
:100550002F9008958FB7F89460917A0170917B0184
:100560002CB53DB506B602FE04C06F5F7F4F2CB5BB
:100570003DB599278FBF88279927CB017727662715
:1005800044275527622B732B842B952B0895EF92CC
:10059000FF920F931F930E94AA027B018C0120916E
:1005A0006301309164014091650150916601809131
:1005B0005E0190915F01A0916001B0916101820F95
:1005C000931FA41FB51FE216F3060407150730F0AA
:1005D00082179307A407B50758F005C08217930741
:1005E000A407B507E0F5E816F9060A071B07B8F5F2
:1005F0009C01AD012E193F09400B510B213060E8E1
:10060000360760E0460760E0560768F180E090E852
:10061000A0E0B0E0E80EF91E0A1F1B1FE092630184
:10062000F0926401009365011093660180E090E808
:10063000AFEFBFEFE80EF91E0A1F1B1F2050304816
:100640004040504020935E0130935F014093600131
:100650005093610120E030E840E050E014C020E019
:1006600030E040E050E08093630190936401A093F8
:100670006501B093660110925E0110925F011092C5
:10068000600110926101A901B7012CB53DB5C90106
:100690008E199F0903968417950720F0B9016D5FA5
:1006A0007F4F02C0640F751F6115710511F461E081
:1006B00070E0615070407BBD6ABD80E186BF87B746
:1006C000806187BF1F910F91FF90EF9008950F9366
:1006D0001F930FB7F894112760936301709364011F
:1006E000809365019093660120935E0130935F01D2
:1006F00040936001509361010E94C7020FBF1F9198
:100700000F910895CF92DF92EF92FF920F931F9374
:10071000CF93DF938C01F62E6A01E22E8FB7F89407
:10072000C82FDD2760E080E00E94CE00882321F002
:10073000CFBF80E090E01EC0CFBF0F0D111D802FF6
:1007400080680E946401F82E16950795802F807CA2
:100750000E9464010E2D0AC0EE2DFF27E01BF10957
:10076000EC0DFD1D80810E94640101500023A1F762
:100770008F2D9927DF91CF911F910F91FF90EF90CF
:10078000DF90CF90089597B79F7D97BF90E296BF77
:10079000882319F08EB5806402C08EB58F7B8EBD24
:1007A00087B7806287BF80E090E00895EF920F9353
:1007B0001F93AE2D99E0899FF0011124E458FE4F5C
:1007C0004083518362837383048315832683378335
:1007D000A17080858E7F8A2B8260808781E00E9455
:1007E0003D011F910F91EF9008957FB7F89462B784
:1007F000209120013091210140912201509123014B
:1008000006B601FE0FC081B792B7280F311D411DFA
:10081000511D2F5F3F4F4F4F5F4F290F311D411D1E
:10082000511D04C0260F311D411D511D872F9927D1
:100830008FBFCA01B9010895AF92BF92CF92DF92E4
:10084000EF92FF920F931F93F82E5A016B010E94B3
:10085000F503AB01BC01E1E0EE2E960185018F2D81
:100860000E94D6031F910F91FF90EF90DF90CF90E1
:10087000BF90AF900895DF92EF92FF920F931F9376
:100880008FB7F894282F3327D22E91B782B746B767
:10089000981711F041FF02C02FBF6AC08091750107
:1008A0008823E1F10E94F503E090A301F090A401F8
:1008B0000091A5011091A6012091320130913301E0
:1008C00040913401509135016E197F09800B910BD5
:1008D000621773078407950720F01092750171E085
:1008E0001EC02E0D3F1D401F511F80912001909171
:1008F0002101A0912201B0912301281B390B4A0B41
:100900005B0B273E31054105510540F4822F223013
:1009100010F070E005C070E082E002C070E086EE8A
:10092000682F615000B601FCFDCF82B7681709F44B
:100930006F5F20912001309121014091220150915F
:100940002301DA01C9010196A11DB11D860F911D78
:10095000A11DB11D82179307A407B50710F4622FDC
:10096000609561BFDFBE772319F080E00E943D01F2
:100970001F910F91FF90EF90DF900895AFB7F8941B
:10098000BB27E1E0E09375016093A3017093A4019C
:100990008093A5019093A6012093320130933301F7
:1009A0004093340150933501AFBF0E943B0408953A
:1009B000AF92BF92CF92DF92EF92FF920F931F936D
:1009C000CF93DF93CDB7DEB728970FB6F894DEBF8D
:1009D0000FBECDBF20E070E0E0910001F091010179
:1009E00032E14DE65CE46FE4809101019E2F289690
:1009F0000FB6F894DEBF0FBECDBFDF91CF911F9130
:100A00000F91FF90EF90DF90CF90BF90AF9008953F
:100A10001F920F920FB60F9211248F9383B783BF4B
:100A200000B600FCFDCF8F910F900FBE0F901F906E
:100A3000189578941F920F920FB60F9211240F9071
:100A40000FBE0F901F90189578941F920F920FB6BB
:100A50000F9211240F900FBE0F901F90189578944D
:100A60001F920F920FB60F9211242F933F938F93E3
:100A70009F932FB7F894332780917A0190917B014F
:100A8000019690937B0180937A012FBF9F918F9164
:100A90003F912F910F900FBE0F901F9018951F92AE
:100AA0000F920FB60F9211240F900FBE0F901F9050
:100AB00018951F920F920FB60F9211240F900FBE30
:100AC0000F901F9018951F920F920FB60F9211243E
:100AD0000F900FBE0F901F9018951F920F920FB698
:100AE0000F9211240F900FBE0F901F9018951F9218
:100AF0000F920FB60F9211240F900FBE0F901F9000
:100B000018951F920F920FB60F9211240F900FBEDF
:100B10000F901F9018951F920F920FB60F921124ED
:100B20000F900FBE0F901F901895CF93DF93CDB706
:100B3000DEB72C970FB6F894DEBF0FBECDBF8FB7D0
:100B4000F894282FAE014F5F5F4FDA01EDEAF1E034
:100B500088E001900D928150E1F7809154019091CD
:100B600055018987892F99278A87809167019091FC
:100B700068018B87892F99278C872FBF2CE060E035
:100B800080E691E00E9482032C960FB6F894DEBFB7
:100B90000FBECDBFDF91CF9108951F920F920FB678
:100BA0000F9211242F933F934F935F936F937F93F3
:100BB0008F939F93AF93BF93EF93FF9383B783BFBD
:100BC00000B600FCFDCF81B799270196AA27BB2765
:100BD0002091200130912101409122015091230167
:100BE000280F391F4A1F5B1F2093200130932101DA
:100BF000409322015093230178940E943B04FF917B
:100C0000EF91BF91AF919F918F917F916F915F9184
:100C10004F913F912F910F900FBE0F901F901895FD
:100C20000F931F93182F0FB7F89461E080E00E9494
:100C3000B400882371F51093020180910501882387
:100C4000A9F580911401823089F588E00CC00E94DA
:100C5000EB0080911401882349F481E08093140112
:100C600010924E018AE00E943D012AC080916201EB
:100C70008F3F31F5E0910401EE2311F11CC0109279
:100C8000030104C0FF27EE59FE4F108210920401A9
:100C900017C081E090E002C0880F991F1A95E2F713
:100CA00020911301282B209313010AC08091140175
:100CB0008823E1F6CCCF809103018F3F19F7DFCF76
:100CC000802F99278FBF80E090E01F910F910895AA
:100CD0001F9383E00E9400019927182F882319F0A1
:100CE00083E00E941006812F99271F9108951F937A
:100CF000CF93DF93182F8FB7F894C82FDD2760E0CC
:100D000080E00E94CE00882321F0CFBF80E090E0F9
:100D100005C0CFBF812F0E9464019927DF91CF9139
:100D20001F910895EF92FF920F931F93CF93DF933C
:100D3000182F7B01042F8FB7F894C82FDD2760E0B0
:100D400080E00E94CE00882321F0CFBF80E090E0B9
:100D500014C0CFBF1064812F992790936C018093AA
:100D60006B010E946401182F402F5527B70180E0C6
:100D700090E00E94DE01812F9927DF91CF911F9192
:100D80000F91FF90EF900895C09860911B017091B2
:100D90001C0141E08FE30E949206089582E090E0FA
:100DA000909348018093470181E08093530120E0B4
:100DB00030E080910201843011F421E030E0232BF7
:100DC00029F484E00E940001882319F40E94C406DB
:100DD000089584E00E94100608951F920F920FB6A6
:100DE0000F9211242F933F934F935F936F937F93B1
:100DF0008F939F93AF93BF93EF93FF93809147019E
:100E000090914801019749F482E090E09093480165
:100E1000809347010E94CE0605C080914D018F5FEF
:100E200080934D01FF91EF91BF91AF919F918F9171
:100E30007F916F915F914F913F912F910F900FBED6
:100E40000F901F9018951F9380911301882309F02C
:100E50004BC0109102011F3F09F046C060E00E94A4
:100E6000CE00882309F440C081E08093B6018091D0
:100E700037018823E1F11092B60185E090E045C08A
:100E8000923069F5C09A8091030120E030E08F3FF5
:100E900011F421E030E0232BE9F4109305018F3F9A
:100EA00019F42FEF30E00DC0282F3327F901EE5948
:100EB000FE4F8081809303018F3F11F41093040152
:100EC000108320934E0181E0809314018AE00E94F8
:100ED0003D0105C0109305011092140111C08091CD
:100EE0001401882369F00FC081E090E00EC080916A
:100EF000050190911401882319F2923021F0EFCF6F
:100F000080E00E94DF0080E090E01F9108951F9331
:100F1000CF93DF939FB7F894C92FDD271C2F9091B3
:100F20000201981721F0CFBF81E090E03AC08FEF27
:100F300080930201309113013323F1F48FB7F894B9
:100F400099271092A7018FBF0E942307CFBF11C01E
:100F50002093020181E090E002C0880F991F4A951A
:100F6000E2F7809538233093130188E00E943D0119
:100F70001FBF80E090E015C080E065E0E32FFF2711
:100F80000E948F18292F492F5527CF01042E02C008
:100F9000959587950A94E2F780FDDACF822F8F5FCF
:100FA000EFCFDF91CF911F9108951F93CF93DF93E0
:100FB0008FB7F894C82FDD271C2F8091470190919F
:100FC0004801892B29F484E00E948707CFBF1EC007
:100FD0001092530180914D01882311F0B79904C0FC
:100FE0000E9908C0882319F0815080934D010E940A
:100FF000CE060BC081E090E09093480180934701BA
:1010000010924D0184E00E9487071FBFDF91CF91AE
:101010001F9108950E940602C09AC09888E00E941D
:10102000770688E00E947706C09A84E00E948707CE
:101030000E94D5070895FF920F931F93CF93DF93DC
:10104000F82E8B018FB7F894C82FDD2760E080E081
:101050000E94CE00882321F0CFBF80E090E00CC03A
:10106000CFBF8F2D0E946401812F99270E946401B8
:10107000802F0E9464019927DF91CF911F910F91DA
:10108000FF9008951F931FB7F89480914C01882317
:1010900019F460E070E009C060E080914D0288239F
:1010A00009F461E081E06827772780915601882361
:1010B00019F480E090E00AC090E08091AC018823B0
:1010C00009F491E081E09827892F9927762F6627E8
:1010D000770F770F770F24E0880F991F2A95E1F794
:1010E000826E9262682B792B81E10E941B08812F0E
:1010F00099278FBF1F9108958FB7F8949927609112
:10110000B5018FBF85E0689FB0011124625D7E4FFD
:10111000706488E10E941B080895EF92FF921F936C
:10112000CF93DF93E0905701F0905801F70182A52B
:101130009927182F882309F41FE1C09880914B014B
:10114000811749F0612F77276F717070606E70683A
:1011500085E10E941B0810934B01F70110818FB7A6
:10116000F894C82FDD2760E080E00E94CE0088233D
:1011700011F0CFBF12C0CFBF8EE390E090936C010F
:1011800080936B018EE30E9464011150412F55271B
:1011900060E070E0C7010E94DE01DF91CF911F91F6
:1011A000FF90EF9008950F931F93CF93DF93EC017F
:1011B0000FB7F89411270E947000FC018FE3808321
:1011C0000FBF10924B0210924A0261E082E00E942F
:1011D000B400882319F085E090E072C08091B701D7
:1011E0008F5F8093B70181508B838FB7F894082F5E
:1011F000112762E081E00E94CE00882329F40FBF0E
:101200000E94FF0181E05BC08FB7F894992724E02A
:101210002093A8018FBFD0937201C09371010FBFBB
:10122000FE013196818129819927982F88273327BC
:10123000822B932B80729C7C8983892F99278183B1
:101240002981982F882733272164822B932B898328
:10125000892F992781831CA618A619A619AA18AA4E
:101260001FA680E88EA761E06093AB0140917101F9
:10127000509172018FB7F894282F33278091150170
:10128000909116018830910511F0019711F02FBF50
:1012900015C082E090E09093160180931501609351
:1012A0005402509358014093570110921F012FBFD1
:1012B0000E946806882311F40E948D0880E0992717
:1012C000DF91CF911F910F910895CF93DF93DA01B2
:1012D000422F2D3118F082E090E05EC0ED018B8747
:1012E0006E83872F99278F832FB7F89433278091A8
:1012F0005401909155012FBFFD018483892F9927B7
:1013000085832FB7F89433278091060190910701C8
:101310002FBF8887892F99278987319681812981D5
:101320009927982F8827332720643868822B932B9E
:101330008983892F99278183435F4C934D508091F6
:101340000901882359F010920901642FCD010E94F0
:10135000D3089927282F8823A9F417C0842F992709
:101360009093700180936F01B0931A01A0931901BB
:101370008CE00E943D0180910901882349F489E0B5
:1013800090E00AC08FEF80930901822F992704C053
:1013900010925D0180E090E0DF91CF910895CF93AE
:1013A000DF93FB01DB0116968683892F9927ED01D8
:1013B000898386E083878091780190917901892BD8
:1013C00019F085E090E02BC070937901609378016B
:1013D000435F40834D5080910C01882319F480E0D5
:1013E00090E01DC08385ED0169817727762F662700
:1013F00026813327622B732B10920C01242FAF010F
:101400000E9465099927282F882339F081E080936D
:101410000C011092790110927801822F9927DF91A7
:10142000CF91089520910001309101012093C701CF
:10143000232F33272093C6018093C901892F992731
:101440008093C80182E08093C5011092C40146E0F8
:1014500068EB71E080917301909174010E94CF0953
:10146000882319F481E080930E0108951F938091E1
:101470000001909101018093C701892F99278093E2
:10148000C60180915001909151018093C901892F2B
:1014900099278093C80111E01093C5011092C401EF
:1014A00046E068EB71E08FEF9FEF0E94CF09882341
:1014B00011F410930E011F910895AF92BF92CF9235
:1014C000DF92EF92FF920F931F93CF93DF935B0115
:1014D0006C01C0E0D0E0ECE7F1E0608561FF4BC05B
:1014E0002081318142815381E480F580068117811A
:1014F000D601C501821B930BA40BB50B8E159F055E
:10150000A007B107C0F160FF03C06D7F608708C00E
:101510002E0D3F1D401F511F208331834283538373
:10152000C13029F0C13018F0C23059F508C04AE086
:1015300050E060E070E082E00E941C0422C00E9443
:1015400021029B01AC018091000190910101019762
:1015500039F430935101209350010E94360A11C092
:1015600080915001909151018617970750F4C9015D
:101570000E94120A06C021963996C430D10509F09E
:10158000ACCF81E00E943D01DF91CF911F910F917F
:10159000FF90EF90DF90CF90BF90AF9008951F9392
:1015A000CF93DF93182FEB01E82FFF27EE0FFF1FDC
:1015B000E858FE4F1182108210920C01E0917801E0
:1015C000F0917901309721F08091490280FF0FC09E
:1015D00081E080930C0103C08EE00E943D01112345
:1015E000C1F4C85BD140A9F410920E0112C0208151
:1015F0002D50332767817727762F66278681992795
:10160000682B792BAF0183850E946509882339F304
:10161000E3CFDF91CF911F9108959B0180910C0141
:10162000882349F4609178017091790162177307FA
:1016300011F40E94CF0A08951F93182F81E090E0C3
:101640009093160180931501109237010E94230791
:101650008FB7F894992710930F018FBF84E00E94F1
:101660003D011F910895CF92DF92EF92FF920F9369
:101670001F93CFB6F894DD240E942102DC01CB0138
:1016800066E470E00E949B181BE0E12EF12CE80E4E
:10169000F91EF0925102E09250020E94AA02002725
:1016A0001127A80197010E946703CFBE1F910F91D8
:1016B000FF90EF90DF90CF9008951F93CF93DF932B
:1016C0008FB7F894C82FDD271C2F809115019091BA
:1016D00016010897C9F489E00E94770683E00E940A
:1016E0008707C09A81E090E09093160180931501DE
:1016F0008FB7F894992723E020930F018FBF84E0E0
:101700000E943D01CFBF30C0C09880915402882311
:1017100011F085E001C084E00E94770683FD09C0D6
:1017200080E00E94770683FF04C085E090E020E01F
:1017300003C083E090E021E09093160180931501AF
:10174000C09A1FBF222341F010921F0183E00E9424
:1017500087070E94330B08C00E94AA0220E431E0F0
:1017600040E050E00E946703DF91CF911F91089500
:10177000EF92FF920F931F93CF93DF938B01809192
:101780006B0190916C0186FF40C18F7B8F3309F014
:101790008EC1C0911B01D0911C0158815093490109
:1017A00080914701909148018530910509F443C02B
:1017B0008630910509F48AC0029709F01FC185E0BF
:1017C00090E0909348018093470140913601852F26
:1017D00099270196242F3327281739074CF1B799F9
:1017E00006C00E9904C0451B4150409336014091FC
:1017F00049014A32E8F44423A1F0BE016F5F7F4FF4
:10180000483018F047E050E007C086E090E0909341
:10181000480180934701552780E090E00E94DE0157
:1018200046C110925301C09A84E00E948707E3C02A
:101830000E940A083CC186E090E0909348018093A2
:10184000470180915601882309F439C08091AC0189
:101850008823A9F5898185FF32C08F814E812FB7FA
:10186000F894332760916701709168012FBF992721
:10187000982F88275527842B952B8617970759F083
:101880008F812E819927982F88273327822B932B9E
:101890008F5F9F4FA1F489818770813081F4C09A56
:1018A000C0988AE00E947706C09AC098409149018A
:1018B00047502896BE018FE30E949206F8C04091DF
:1018C0004901475055272896BE01A6CFC09A80915E
:1018D0004D01882339F484E00E94870780914D01EF
:1018E000882311F0B7990AC00E9B08C0909144025A
:1018F000992321F0809149018B3038F480911B01AC
:1019000090911C010E9412023DC0913001F5E091BE
:101910004802FF27EE0FFF1FEE0FFF1FE051FE4FA3
:101920002081318142815381E0911B01F0911C01A2
:1019300021ABBB27A52F942F832F80ABCA01AA27E9
:10194000BB2787A7252F33274427552726A7809114
:1019500048029927019668E070E00E94AF188093D2
:10196000480280914402815080934402882351F0C0
:1019700080911B0190911C010E941202109248025A
:101980001092440280914901FE01E80FF11D80810F
:1019900087FF31C0012B79F169816770E0911B01EC
:1019A000F0911C01623019F5A0915701B0915801D6
:1019B000109709F180911501909116010797D9F4BC
:1019C000ED019B8183819817B1F487B78F7E87BF24
:1019D000908181E08CA7E90FF11D8291319688A753
:1019E00080818F7789A780E00E941C0B04C0613042
:1019F00011F48BE02AC00E94D50759C01092530100
:101A0000C09A84E00E94870752C08E3309F04FC00D
:101A1000C09A80911501909116010897C9F4C09859
:101A200089E00E947706C09A83E00E94870781E0E0
:101A300090E090931601809315018FB7F894992741
:101A400023E020930F018FBF84E00E943D012FC04F
:101A500080915402882349F484E090E09093160129
:101A6000809315010E945D0B22C083E00E948707CE
:101A700083E090E090931601809315010E9421026B
:101A8000DC01CB0166E371E00E949B180BE0E02EC5
:101A9000F12CE80EF91EF0923101E09230010E9423
:101AA000AA0200271127A80197010E946703DF916E
:101AB000CF911F910F91FF90EF9008951F920F9279
:101AC0000FB60F9211242F933F934F935F936F9311
:101AD0007F938F939F93AF93BF93EF93FF932FB118
:101AE000E091A001F091A101309739F08091760149
:101AF00090917701E80FF91F2083809176019091F2
:101B000077010196909377018093760180E00E949F
:101B1000E50040911D0150911E0180917601909148
:101B200077018417950718F40E9470011CC060911A
:101B3000A0017091A10180914E0290914F021092EC
:101B4000A1011092A00110924F0210924E02109229
:101B50001E0110921D0110927701109276012FB193
:101B600020E00E94B80BFF91EF91BF91AF919F9140
:101B70008F917F916F915F914F913F912F910F9036
:101B80000FBE0F901F90189578941F920F920FB66A
:101B90000F9211242F923F924F925F926F927F92F9
:101BA0008F929F92AF92BF92CF92DF92EF92FF926D
:101BB0000F931F932F933F934F935F936F937F9355
:101BC0008F939F93AF93BF93CF93DF93EF93FF9345
:101BD000C6B5D7B58FB7F894282E0E94AA029B01EC
:101BE0002C1B3D0B442755272B013C01421A530A5D
:101BF000640A750A8091150190911601853091054E
:101C000021F0069709F0E0C0BFC086E090E0909315
:101C100016018093150131E0332E3092520110925B
:101C2000170180E00E94C303E0915701F091580131
:101C300041AABB27A72D962D852D80ABC301AA27CE
:101C4000BB2787A7872D9927AA27BB2786A7E091BF
:101C50005701F091580185A5882309F484C060815B
:101C6000655077274F01860E971EF4012081E18091
:101C70008281A3809927AA27BB27BA2FA92F982F43
:101C80008827332744275527522F442733272227D5
:101C9000FF24002711278701FF24EE242E293F2946
:101CA000402B512BBB24CC24DD242A293B294C2951
:101CB0005D29822B932BA42BB52B84199509A6099A
:101CC000B7098383292F3A2F4B2F552722839D0154
:101CD0004427552721838B2F9927AA27BB27808349
:101CE000C09824E0A40180E090E00E948203C09AA2
:101CF000F4012081E1808281A3809927AA27BB2754
:101D0000BA2FA92F982F8827332744275527522FDA
:101D1000442733272227FF24002711278701FF2488
:101D2000EE242E293F29402B512BBB24CC24DD242B
:101D30002A293B294C295D29822B932BA42BB52BD7
:101D4000840D951DA61DB71D8383292F3A2F4B2F78
:101D5000552722839D014427552721838B2F9927BF
:101D6000AA27BB278083E0915701F0915801818118
:101D700085FF02C03092370183E00E94870787B752
:101D80008F7E87BF84997AC01092520181E00E94B1
:101D9000C303E0915701F0915801818185FF0FC085
:101DA00087E090E090931601809315010E94AA02AB
:101DB00020E031E040E050E00E94670303C080E093
:101DC0000E941C0B849B5AC080911701882391F5B7
:101DD00080915201882371F511E0109352010E9405
:101DE000C30380B320914402283098F4E091480264
:101DF000E20FFF27E770F070EE0FFF1FEE0FFF1FDF
:101E0000E051FE4F40825182628273822F5F2093A5
:101E1000440210931701D0936E01C0936D01849911
:101E20002DC09927A4E096958795AA95E1F7182FDC
:101E3000117001C010E0809152018130F9F41092CC
:101E400052010E94C303109217011123B9F480912B
:101E50006D0190916E01C81BD90B2A9778F480917F
:101E60004402882319F081508093440280915701E5
:101E700090915801009711F00E9412022FBEFF911D
:101E8000EF91DF91CF91BF91AF919F918F917F9112
:101E90006F915F914F913F912F911F910F91FF9003
:101EA000EF90DF90CF90BF90AF909F908F907F90FA
:101EB0006F905F904F903F902F900F900FBE0F90BC
:101EC0001F90189578941F920F920FB60F921124BD
:101ED0001F932F933F934F935F936F937F938F93B2
:101EE0009F93AF93BF93EF93FF9387B78F7E87BF87
:101EF00078941FB7F89480915E0190915F01A09152
:101F00006001B09161010097A105B10509F051C0D0
:101F100080911501909116018530910561F186300F
:101F2000910530F48330910549F0049781F51AC08A
:101F300087309105F1F0089751F514C0869B0FC0CA
:101F400084E090E090931601809315010E94AA020C
:101F500027E030E040E050E00E94670318C00E9494
:101F6000330B15C00E946806882389F40E945D0B1C
:101F70000EC080E00AC089E00E94770681E00E94DE
:101F8000C30383E00E94870787E00E941C0B8091B7
:101F9000100190911101019771F482E090E090930B
:101FA000110180931001DE98DE9A80E00E941006F5
:101FB00002C00E94C702812F99278FBFFF91EF9126
:101FC000BF91AF919F918F917F916F915F914F9151
:101FD0003F912F911F910F900FBE0F901F9018955A
:101FE00061E081E00E94B4008823E9F48FB7F8949F
:101FF000282F33278091100190911101892B11F026
:102000002FBF20C081E090E09093110180931001D8
:102010002FBFDD9A0E94AA0224E130E040E050E0A8
:102020000E9467030FC062E081E00E94CE00882317
:1020300019F089E090E0089561E081E00E94CE000F
:10204000882319F080E090E0089585E090E00895FD
:10205000AF92BF92CF92DF92EF92FF920F931F93B6
:10206000CF93DF93CDB7DEB7A8970FB6F894DEBF56
:102070000FBECDBF873009F4A3C1883098F48330F8
:1020800009F425C1843038F4813009F45BC0823012
:1020900008F0B0C024C0853009F470C1863008F063
:1020A00088C11BC18B3009F4B8C28C3038F4893038
:1020B00009F47CC28A3008F09CC2BBC18D3039F073
:1020C0008D3008F46DC48E3009F0C5C4B3C480915E
:1020D0004902882309F4BFC451E040E08AC48091DA
:1020E0004A01882361F52091EC013091ED01409186
:1020F000EE015091EF01EFB7F894FF276091A30133
:102100007091A4018091A5019091A601E090320107
:10211000F090330100913401109135016E0D7F1D57
:10212000801F911FEFBF2093EC013093ED0140938E
:10213000EE015093EF0110924A010E94BE040E94EA
:10214000F50343C00E94F5035B016C018FB7F8945F
:102150009927109275018FBF7FEFE72E7FEFF72E43
:102160007FEF072F7FE7172F60E0ECE7F1E0808536
:1021700081FF1CC080819181A281B381A60195015C
:10218000281B390B4A0B5B0BDA01C901248135810D
:1021900046815781281B390B4A0B5B0B2E153F05D7
:1021A000400751071CF479018A0161E0399631E05A
:1021B000E03AF307E1F6662309F44DC41E141F0448
:1021C000100611062CF0C601B5010E945D0A43C439
:1021D000E092EC01F092ED010093EE011093EF011B
:1021E00081E080934A01A8019701C601B5010E94D0
:1021F000BE0431C40FB7F894112781E00E94C303D5
:1022000061E0E62EF12CF0921601E0921501109299
:1022100017011092370110924B010FBF0FB7F894BE
:1022200011270E940602F0924801E09247011092A5
:10223000530189B78F7B89BF80E488BF8AB78062EA
:102240008ABF8AB78F7E8ABF89B7806489BF0FBF74
:102250008FB7F894082F11278091100190911101E8
:10226000049719F483E00E9477060FBF0FB7F89424
:102270001127C09A80E00E9487070FBF8FB7F8949C
:10228000992722E02093A8018FBF809100019091AF
:102290000101019759F4EE2400ED17E020E030E051
:1022A00040E050E060E070E080E00EC0109251012C
:1022B00010925001EE2408EE13E020E030E040E000
:1022C00050E060E070E081E00E94D603C4C38FB7A5
:1022D000F89499271092A80171C08FB7F8949927A4
:1022E000F0900F018FBF63E081E00E94CE00882351
:1022F00059F10FB7F8941127109216011092150199
:1023000087B78F7E87BF87B78F7D87BF83E00E94A7
:102310008707C09A0FBF0FB7F89411271092480192
:10232000109247010E940602C09A89B78F7B89BF2D
:102330000FBF1092110110921001DE98DD98DE9A05
:1023400083E00E943D0107C08FB7F894992722E0EF
:102350002093A8018FBF00917101109172010E941A
:10236000FF0180914A0290914B02892B09F073C3BF
:102370008FEF809309014F2DB80132C38FB7F894C6
:10238000282F3327122F80915202882309F581E0EC
:10239000809352028091100190911101049721F4D1
:1023A00081E00E94100603C086E00E943D011FBF2D
:1023B00052C38FB7F8949927109252028FBF4BC324
:1023C0008FB7F894282F332780911201882311F0BA
:1023D0002FBF41C32FBF80B3992756E096958795AD
:1023E0005A95E1F7182F11709091690180916A0157
:1023F0008917D9F01917C9F484E090E0909311017E
:10240000809310018FB7F894992721E0209312014F
:102410008FBF60E070E08DE10E941B080E9495056F
:10242000C09AC09882E00E943D0110936A0187E043
:102430006DC08FB7F8949927109102018FBF1230A9
:1024400009F467C0133030F4112359F0113009F04A
:1024500002C348C0133009F476C0143009F0FBC23F
:10246000A2C0C0988FB7F894082F1127809110014F
:10247000909111010297A1F583E090E090931101F2
:102480008093100168E170E08DE10E941B0881E0FB
:10249000809369011092120180B3992746E09695C6
:1024A00087954A95E1F78170907080936A0187E083
:1024B0000E943D0181E00E9477066FE772E08CE1A7
:1024C0000E941B080E947C080E94420866E57AE28E
:1024D00087E10E941B086FEF70E885E10E941B08EE
:1024E0000FBFB9C2C09886E00E9477060E947C08A0
:1024F0000E9442080E949505C09AC09883E00E94FD
:102500007706C09A81E00E94870786E00E943D011D
:10251000A2C2C0988FB7F894082F112760E080E01E
:102520000E94CE00882311F00FBF0AC00FBF83E5C1
:102530000E94640180E00E94640180E00E946401C6
:10254000C09A82E02DC08FB7F89499272091150189
:102550008FBF243039F0283041F0223001F50E943D
:102560008D0879C20E945D0B76C2C09889E00E94F6
:102570007706C09A83E00E9487078FB7F89499275F
:1025800021E030E030931601209315018FBF8FB703
:10259000F894992710930F018FBF84E0B7CF83E0A1
:1025A0000E94870758C20E94C40655C20FB7F8940C
:1025B000112740911D0150911E016091A001709161
:1025C000A10180914E0290914F021092A1011092B0
:1025D000A00110924F0210924E0210921E01109212
:1025E0001D01109277011092760120E00E94B80B35
:1025F00077CF2FB7F894332780914E018093050150
:1026000082E0809314012FBF80910501882309F097
:1026100022C2B89AC09888E079CFA0911B01B091EE
:102620001C011C919D01210F311DF9018081881F22
:102630008827881FFD0183A7F90180818F77FD011D
:1026400081A721503040F9018081FD0180A7A09130
:102650001B01B0911C01FD0132818FB7F8949927BD
:1026600020914C018FBF222309F490C0832F99271A
:102670009695879596958795837090708230910591
:1026800041F5878146812FB7F89433276091670120
:10269000709168012FBF9927982F88275527842B81
:1026A000952B8617970719F481E090E06CC0FD0127
:1026B0008781268140E050E09927982F882733278B
:1026C000822B932B8F5F9F4F11F441E050E0CA01A2
:1026D0005AC0039709F05BC19E012F5F3F4F4DEA3F
:1026E00051E088E0FA010190AF01F90101929F01E8
:1026F0008150C1F79E012F5D3F4FAE014F5F5F4F8D
:1027000088E0FA010190AF01F90101929F01815027
:10271000C1F79E01275F3F4FAE014F5D5F4F88E0DD
:10272000FA010190AF01F90101929F018150C1F7B7
:102730009E012F5E3F4FAE01475F5F4F88E0FA0179
:102740000190AF01F90101929F018150C1F79E01F3
:10275000275E3F4FAE014F5E5F4F88E0FA01019068
:10276000AF01F90101929F018150C1F748E050E0AB
:10277000BE01675E7F4FCD0106960E941819892B16
:1027800009F005C103C0882309F401C11D3008F414
:10279000FEC0E0901B01F0901C01F7012281822F06
:1027A000992716E0969587951A95E1F7039719F4FE
:1027B00068E070E002C062E070E0822F9927969591
:1027C00087959695879583709070039719F488E0A4
:1027D00090E002C082E090E026E030E0E20EF31EDE
:1027E00040E050E020E030E0F701E80FF91F8AEF09
:1027F0009FEFE80EF91E05C08191480F511D2F5F14
:102800003F4F26173707C4F3F70163818FEF80939B
:102810004C028FB7F894782F20E030E0E4E2F1E04A
:10282000808191818417950729F48281861731F17F
:1028300020934C022F5F3F4F33962430310581F7B0
:102840007FBF90914C023FB7F8949F3F21F0809159
:1028500018018917A9F420911801822F9927FC01EA
:10286000EE0FFF1FE80FF91FEC5DFE4F5183408311
:1028700062832F5F2370209318010EC07FBF83C037
:10288000892F9927FC01EE0FFF1FE80FF91FEC5D60
:10289000FE4F518340836283832F99278FBF0FB7E9
:1028A000F8941127C7010E947000FC0190810FBFAE
:1028B000F70183A5882309F466C09F3309F063C03C
:1028C000878146812FB7F894332760910601709174
:1028D00007012FBF9927982F88275527842B952BE1
:1028E0008617970761F0878126819927982F882777
:1028F0003327822B932B8F5F9F4F09F044C0F70142
:102900008385863009F03FC0848525859927982FD7
:1029100088273327822B932B0197D1F48089218933
:102920009927982F88273327822B932B9093510137
:1029300080935001868527859927982F88273327EC
:10294000822B932B90937401809373010E94360A1B
:10295000F701848525859927982F88273327822B8F
:10296000932B029781F480910001909101010197CE
:1029700051F0808921899927982F88273327822B26
:10298000932B0E94120AF0921C01E0921B018FB758
:10299000F8949927109253018FBF0E94D5075BC00E
:1029A00090915D0180910901981709F454C09093AA
:1029B00009019923D1F40091190110911A01609134
:1029C0006F01C8010E94D308482F5527442309F4FA
:1029D00042C08FEF809309016091190170911A0133
:1029E000F80183850E940D0B36C08FEF809309019B
:1029F00032C090914902852F8923B9F0E42FFF2737
:102A0000EE0FFF1FE858FE4F2081318111821082A6
:102A1000852F8095982390934902442331F4285BB5
:102A20003140B1F410920E0113C04F5F483098F45A
:102A3000550FDFCF80910C01E82FFF27EE0FFF1F0E
:102A4000E858FE4F6081718141E00E94CF0A03C0C7
:102A5000550F41E0CECFA8960FB6F894DEBF0FBE5B
:102A6000CDBFDF91CF911F910F91FF90EF90DF903D
:102A7000CF90BF90AF900895809145028F3FB1F005
:102A8000282F3327F901E85CFE4F808180934502AF
:102A90008F3F11F4809353028FEF80832F3F31F0EB
:102AA000822F0E94281081E090E0089580E090E05D
:102AB00008951F93CF93DF93CDB7DEB7E0970FB69E
:102AC000F894DEBF0FBECDBF1FB7F8944FE050E0C3
:102AD0006FEF70E088E391E00E9425198FEF8093FB
:102AE00045028093530281E08EBD88E080BF83E081
:102AF00083BF8CB59DB54AE72CB53DB5281739077E
:102B000008F44150442311F0C901F6CF92B782B7BF
:102B10008917E9F32CB53DB592B782B78917E9F368
:102B20008CB59DB5821B930B4096E5E096958795F5
:102B3000EA95E1F7909347028093460213BE83B76C
:102B40008EBD8EB580BF12BE1DBC1CBC8FEF86BF74
:102B500086B780937C0080B7992787709070892B07
:102B6000D1F7D29AD19AD09ADA9AD99AD89A15BA34
:102B70008FEF84BBD498DC981DBC1CBC87B78460E5
:102B800087BF8EB5887F84608EBD0E943C158823E8
:102B9000E1F78FEF80934F01E4E2F1E08FEF9FEFD9
:102BA000918380831282339621E0E033F207C1F7EC
:102BB0000E9421026093B70180E192E090931C0192
:102BC00080931B018E98B89A8C988FEF8093620146
:102BD0001092A7011092A8011092A9011092AA01C7
:102BE000B89AD69AD59A8FB7F8949927209106016A
:102BF000309107018FBF30936801209367010E94D5
:102C0000D80429A73AA74BA75CA76DA77EA78FA7D3
:102C100098ABDE019196FE01B99688E001900D9285
:102C20008150E1F7DE015196FE01B19688E00190F6
:102C30000D928150E1F7DE015996FE01719688E010
:102C400001900D928150E1F7ADEAB1E0FE01799675
:102C500088E001900D928150E1F780910801992759
:102C600090935501809354018FE18093A2018AE1F2
:102C70008093B5010E94D80429A73AA74BA75CA767
:102C80006DA77EA78FA798ABDE019196FE01B9963E
:102C900088E001900D928150E1F7DE011196FE016E
:102CA000B19688E001900D928150E1F7DE0119960E
:102CB000FE01319688E001900D928150E1F7ADEA76
:102CC000B1E0FE01399688E001900D928150E1F764
:102CD000ADEAB1E0FD0137969C9180818D939083A0
:102CE000319781E0E03BF807B9F781E080934C0130
:102CF00010924D02809356011092AC018091000118
:102D0000909101010196AA27BB27809359019093C6
:102D10005A01A0935B01B0935C0180B7886080BFCB
:102D20008BE083BF86EE81BF87B7826087BF0E943A
:102D30003B040E943C158823E1F7812F99278FBF20
:102D400078940E94F00F8FB7F894482F55274BC006
:102D500087B7992783709070892B19F4E5E0F0E02C
:102D600013C080B7992787709070892BD1F781B7EE
:102D700092B7891B8C3030F082B7853F18F4E3E0BE
:102D8000F0E002C0E2E0F0E087B7887BC1F4809118
:102D90007D008B7FA1F46E9912C08AB190919A0048
:102DA000892B887161F48091740082FD08C0379B83
:102DB00003C081E090E005C085E090E002C080E0C3
:102DC00090E025B78E1708F4E82FFF27E457FF4F50
:102DD000E491237E2062E22BE5BF78948895F894F5
:102DE00085B78F7D85BF809145028F3F09F4B0CFB5
:102DF000282F3327F901E85CFE4F8081809345023C
:102E00008F3F11F4809353028FEF80832F3F09F49B
:102E10009FCF4FBF822F0E94281095CFACE2B0E029
:102E2000E4E1F7E10C94E118222E332E442E552EC6
:102E3000662E772E882E992EFE013196A8E01192EB
:102E4000AA95E9F729823A824B825C826D827E8262
:102E50008F829886FE013996B8E01192BA95E9F70B
:102E6000A986BA86CB86DC86ED86FE860F87188B10
:102E700089819A81AB81BC8189A79AA7ABA7BCA79E
:102E80007C018D018FEF9FEFA0E0B0E0E822F922F6
:102E90000A231B2389A59AA5ABA5BCA51D01442423
:102EA000552489859A85AB85BC858DA39EA3AFA348
:102EB000B8A75C016D018FEF9FEFA0E0B0E0A82202
:102EC000B922CA22DB228DA19EA1AFA1B8A53D01E6
:102ED00088249924C801B701A60195010E94C2184F
:102EE00069A37AA38BA39CA3C801B701A401930192
:102EF0000E94C2187B018C01C201B101A60195019B
:102F00000E94C2185B016C01C201B101A4019301CE
:102F10000E94C2183B014C01EA0CFB1C0C1D1D1D3C
:102F200089A19AA1ABA1BCA19D01442755272E0DD3
:102F30003F1D401F511F2A153B054C055D0540F400
:102F400080E090E0A1E0B0E0680E791E8A1E9B1E32
:102F5000CA01AA27BB27860D971DA81DB91D8D8FF5
:102F60009E8FAF8FB8A3A9013327222789A19AA1E9
:102F7000ABA1BCA1A070B070280F391F4A1F5B1F06
:102F8000298F3A8F4B8F5C8FA98CBA8CCB8CDC8CC1
:102F9000ED8CFE8C0F8D18A1FE01719698E01192B8
:102FA0009A95E9F7ED8AFE8A0F8B188F2D813E8165
:102FB0004F8158856DA17EA18FA198A50E94C2184E
:102FC0003B014C012D853E854F85588969A57AA521
:102FD0008BA59CA50E94C2182D893E894F89588DCA
:102FE000260F371F481F591F260D371D481D591D15
:102FF0002D8B3E8B4F8B588F6D887E888F88988C59
:103000002A2D3B2D4C2D5D2D662D772D882D992D4C
:10301000E2E1AC960C94FD18A0E1B0E0E2E1F8E149
:103020000C94E118222E332E442E552E662E772E28
:10303000882E992E002309F466C088E0FE0131969F
:1030400011928A95E9F729833A834B835C836D83D8
:103050007E838F829887E0E2E01B1E16CCF52D81DF
:103060003E814F815885602F772767FD7095DA0183
:10307000C901062E04C0B695A795979587950A9421
:10308000D2F78D879E87AF87B88B04C0220F331F7E
:10309000441F551FEA95D2F789819A81AB81BC8183
:1030A00004C0B695A795979587956A95D2F7282B72
:1030B000392B4A2B5B2B29873A874B875C872984DE
:1030C0003A844B845C846D847E848F8498881BC092
:1030D0001D861E861F86188A2E2F332727FD3095C2
:1030E000309521953F4F8D819E81AF81B88504C079
:1030F000B695A795979587952A95D2F789879A8748
:10310000AB87BC87DCCF222D332D442D552D662D6A
:10311000772D882D992DE2E160960C94FD18991B6E
:1031200079E004C0991F961708F0961B881F7A95BE
:10313000C9F780950895AA1BBB1B51E107C0AA1FC0
:10314000BB1FA617B70710F0A61BB70B881F991F48
:103150005A95A9F780959095BC01CD01089597FBEC
:10316000092E07260AD077FD04D0E5DF06D000201F
:103170001AF4709561957F4F0895F6F790958195B3
:103180009F4F0895629FD001739FF001829FE00DD1
:10319000F11D649FE00DF11D929FF00D839FF00DD6
:1031A000749FF00D659FF00D9927729FB00DE11D82
:1031B000F91F639FB00DE11DF91FBD01CF0111245F
:1031C00008952F923F924F925F926F927F928F92CB
:1031D0009F92AF92BF92CF92DF92EF92FF920F93A6
:1031E0001F93CF93DF93CDB7DEB7CA1BDB0B0FB6B0
:1031F000F894DEBF0FBECDBF09942A88398848886D
:103200005F846E847D848C849B84AA84B984C88402
:10321000DF80EE80FD800C811B81AA81B981CE0FF9
:10322000D11D0FB6F894DEBF0FBECDBFED010895DE
:10323000FB01DC0104C08D910190801921F4415003
:103240005040C8F7881B990B0895DC0101C06D93AD
:0A32500041505040E0F70895FFCF11
:0E325A000100FFFFFFFF010022FFFFFF010048
:00000001FF
