S01800006275696C642F6D6963617A2F6D61696E2E73726563E5
S11300000C9449000C94D0040C94DA040C94E40489
S11300100C94EE040C94F8040C9402050C94170749
S11300200C940C050C9468000C9468000C9428172C
S11300300C94FD0B0C949A040C94B0040C941605C7
S11300400C9489040C94310E0C9468000C94680090
S11300500C9468000C9468000C9468000C9468007C
S11300600C94A5040C9468000C9468000C9468002B
S11300700C9468000C9468000C9468000C9468005C
S11300800C9468000C9468000C94680000081C1818
S1130090141011241FBECFEFD0E1DEBFCDBF11E09D
S11300A0A0E0B1E0EAECF5E300E00BBF02C007908A
S11300B00D92AE30B107D9F712E0AEE0B1E001C065
S11300C01D92AC35B107E1F70E9473150C94E41A44
S11300D00C9400008FB7F894992708958FBF089562
S11300E0FC0182819927582F442781819927482B25
S11300F0592BCA01892F992786958695837090700C
S11301008230910559F08330910559F0892B19F407
S113011020E030E008C02CE93FEF05C022E030E0E9
S113012002C028E030E0CA0184E0989F812D99271D
S113013011248230910559F08330910559F0892BAF
S113014019F480E090E008C08CE99FEF05C082E0DC
S113015090E002C088E090E0280F391F2A5F3F4FEB
S1130160CF01820F931F0895282F9FB7F894662319
S113017049F0E82FFF27E855FE4F8081882311F0CE
S113018021E006C0E22FFF27E855FE4F608320E000
S1130190892F99278FBF822F99270895E82F8FB72A
S11301A0F894282F332790E0FF27E855FE4F8081ED
S11301B0861709F491E02FBF892F99270895882382
S11301C011F06E9A08956E980895882311F06F9A2D
S11301D008956F98089580E00E94DF00BA9ABB9852
S11301E0B99AB89A6C9A80E00E94E5006B986A9874
S11301F081E00E94DF00709A8DB18C7F8DB90895E3
S11302000F931F93CF93DF93182F8FB7F894C82FB2
S1130210DD270C2F61E080E00E94B400882321F0E8
S1130220CFBF85E090E024C0809106018823A1F42B
S113023080911401823081F409C082E0809314011A
S1130240109206010E94EB00B89AC0981093030123
S113025080E00FBF99270CC080911401882369F3B3
S11302608FB7F89499271092A8018FBF81E0F1CF3E
S1130270DF91CF911F910F910895282F9FB7F89484
S1130280E82FFF27E85CFE4F80818F3F81F4E091E7
S11302905A02E21771F40BC020934A0204C0FF27EC
S11302A0E85CFE4F208320935A0220E007C025E03B
S11302B005C080914A028F3F91F7EECF892F99278D
S11302C08FBF822F992708951F93182F81E00E94D2
S11302D0DF001FB9779BFECF8FB199271F91089537
S11302E08F929F92AF92BF92CF92DF92EF92FF9242
S11302F00F931F93CF93DF938FB7F8949927C090F0
S11303005502D09056028090A1019090A201C09114
S11303107701D091780120911D0130911E01EAE00E
S1130320AE2EB12CAC0EBD1E2A153B0508F45901A6
S11303308FBF7401EC0EFD1E86010C0F1D1F14C02F
S1130340C114D10419F0F801808101C080E00E9439
S113035064018114910411F0F701808321960894BB
S1130360E11CF11C0F5F1F4FC5010197C817D90786
S113037038F381E00E94E5009FB7F894C114D104DA
S113038031F0CC0EDD1EF60180818FB901C01FB89B
S1130390D0937801C0937701892F99278FBF80E08C
S11303A090E0DF91CF911F910F91FF90EF90DF903C
S11303B0CF90BF90AF909F908F9008952FB7F894EF
S11303C0332750931E0140931D019093560280934E
S11303D055027093A2016093A101109278011092CA
S11303E077012FBF452B29F08FB10E947001992707
S11303F0089589E00E943D0180E090E008958FB760
S1130400F89499271092AA018FBF089580E88093E9
S113041036011092550110924F0210924902109227
S11304204D010895CF93DF93FC0115A6DC019E9640
S1130430ED011B821A82198280E886A7DF91CF9191
S113044008952F923F924F925F926F927F928F9274
S11304509F92AF92BF92CF92DF92EF92FF920F934F
S11304601F93CF93DF93CDB7DEB729970FB6F894D8
S1130470DEBF0FBECDBF6FB76983F89420905B01D8
S113048030905C0140905D0150905E0166247724B9
S11304908824BEE4AB2EA3E8BA2ECC24DD24EE24BB
S11304A0FF2400E010E0222D332D442D552D662D20
S11304B0772D882D90E00E94C6182A833B834C83B5
S11304C05D836E837F8388879987822E932EA42EE3
S11304D0B52E2401350100E20E94C419A22EB32EC8
S11304E0C42ED52EA301920156954795379527958D
S11304F02A0D3B1D4C1D5D1D57FF05C05F772F5F07
S11305003F4F4F4F5F4F20935B0130935C0140930B
S11305105D0150935E01E9818E2F99278FBFCA0137
S1130520B90129960FB6F894DEBF0FBECDBFDF9197
S1130530CF911F910F91FF90EF90DF90CF90BF90DC
S1130540AF909F908F907F906F905F904F903F906F
S11305502F9008958FB7F89460917B0170917C017E
S11305602CB53DB506B602FE04C06F5F7F4F2CB5B7
S11305703DB599278FBF88279927CB017727662711
S113058044275527622B732B842B952B0895EF92C8
S1130590FF920F931F930E94AA027B018C0120916A
S11305A06501309166014091670150916801809125
S11305B0600190916101A0916201B0916301820F89
S11305C0931FA41FB51FE216F3060407150730F0A6
S11305D082179307A407B50758F005C0821793073D
S11305E0A407B507E0F5E816F9060A071B07B8F5EE
S11305F09C01AD012E193F09400B510B213060E8DD
S1130600360760E0460760E0560768F180E090E84E
S1130610A0E0B0E0E80EF91E0A1F1B1FE09265017E
S1130620F0926601009367011093680180E090E8FE
S1130630AFEFBFEFE80EF91E0A1F1B1F2050304812
S11306404040504020936001309361014093620127
S11306505093630120E030E840E050E014C020E013
S113066030E040E050E08093650190936601A093F0
S11306706701B093680110926001109261011092B9
S1130680620110926301A901B7012CB53DB5C901FE
S11306908E199F0903968417950720F0B9016D5FA1
S11306A07F4F02C0640F751F6115710511F461E07D
S11306B070E0615070407BBD6ABD80E186BF87B742
S11306C0806187BF1F910F91FF90EF9008950F9362
S11306D01F930FB7F8941127609365017093660117
S11306E080936701909368012093600130936101C6
S11306F040936201509363010E94C7020FBF1F9190
S11307000F91089597B79F7D97BF90E296BF882376
S113071019F08EB5806402C08EB58F7B8EBD87B70D
S1130720806287BF80E090E008957FB7F89462B755
S11307302091200130912101409122015091230107
S113074006B601FE0FC081B792B7280F311D411DB7
S1130750511D2F5F3F4F4F4F5F4F290F311D411DDB
S1130760511D04C0260F311D411D511D872F99278E
S11307708FBFCA01B9010895DF92EF92FF920F93E0
S11307801F938FB7F894282F3327D22E91B782B7AF
S113079046B7981711F041FF02C02FBF6AC080917D
S11307A076018823E1F10E949503E090A401F09082
S11307B0A5010091A6011091A70120913201309169
S11307C0330140913401509135016E197F09800B3A
S11307D0910B621773078407950720F01092760136
S11307E071E01EC02E0D3F1D401F511F809120013E
S11307F090912101A0912201B0912301281B390B72
S11308004A0B5B0B273E31054105510540F4822F0D
S1130810223010F070E005C070E082E002C070E0A9
S113082086EE682F615000B601FCFDCF82B76817D1
S113083009F46F5F20912001309121014091220140
S113084050912301DA01C9010196A11DB11D860F42
S1130850911DA11DB11D82179307A407B50710F4BC
S1130860622F609561BFDFBE772319F080E00E949C
S11308703D011F910F91FF90EF90DF900895AFB766
S1130880F894BB27E1E0E09376016093A4017093B0
S1130890A5018093A6019093A70120933201309380
S11308A033014093340150933501AFBF0E94BC0320
S11308B00895AF92BF92CF92DF92EF92FF920F937F
S11308C01F93CF93DF93CDB7DEB728970FB6F89475
S11308D0DEBF0FBECDBF20E070E0E0910001F091DB
S11308E0010132E14DE65CE46FE4809101019E2F49
S11308F028960FB6F894DEBF0FBECDBFDF91CF911F
S11309001F910F91FF90EF90DF90CF90BF90AF9029
S113091008951F920F920FB60F9211248F9383B7ED
S113092083BF00B600FCFDCF8F910F900FBE0F90D8
S11309301F90189578941F920F920FB60F9211245E
S11309400F900FBE0F901F90189578941F920F92DE
S11309500FB60F9211240F900FBE0F901F90189591
S113096078941F920F920FB60F9211242F933F93F6
S11309708F939F932FB7F894332780917B019091A5
S11309807C01019690937C0180937B012FBF9F9102
S11309908F913F912F910F900FBE0F901F9018953C
S11309A01F920F920FB60F9211240F900FBE0F904B
S11309B01F9018951F920F920FB60F9211240F904B
S11309C00FBE0F901F9018951F920F920FB60F92A3
S11309D011240F900FBE0F901F9018951F920F9225
S11309E00FB60F9211240F900FBE0F901F90189501
S11309F01F920F920FB60F9211240F900FBE0F90FB
S1130A001F9018951F920F920FB60F9211240F90FA
S1130A100FBE0F901F9018951F920F920FB60F9252
S1130A2011240F900FBE0F901F9018951F920F92D4
S1130A300FB60F9211242F933F934F935F936F93AD
S1130A407F938F939F93AF93BF93EF93FF9383B75A
S1130A5083BF00B600FCFDCF81B799270196AA2772
S1130A60BB27209120013091210140912201509116
S1130A702301280F391F4A1F5B1F20932001309345
S1130A802101409322015093230178940E94BC03D6
S1130A90FF91EF91BF91AF919F918F917F916F9152
S1130AA05F914F913F912F910F900FBE0F901F9028
S1130AB01895EF920F931F93AE2D99E0899FF00143
S1130AC01124E358FE4F408351836283738304836C
S1130AD0158326833783A17080858E7F8A2B82605D
S1130AE0808781E00E943D011F910F91EF9008954E
S1130AF0AF92BF92CF92DF92EF92FF920F931F9328
S1130B00F82E5A016B010E949503AB01BC01E1E090
S1130B10EE2E960185018F2D0E9459051F910F918C
S1130B20FF90EF90DF90CF90BF90AF9008950F9318
S1130B301F93182F0FB7F89461E080E00E94B4006F
S1130B40882371F510930301809106018823A9F588
S1130B5080911401823089F588E00CC00E94EB007A
S1130B6080911401882349F481E080931401109248
S1130B704E018AE00E943D012AC0809164018F3FAA
S1130B8031F5E0910501EE2311F11CC0109204012E
S1130B9004C0FF27EC59FE4F10821092050117C0C4
S1130BA081E090E002C0880F991F1A95E2F7209126
S1130BB01301282B209313010AC080911401882368
S1130BC0E1F6CCCF809104018F3F19F7DFCF802F5E
S1130BD099278FBF80E090E01F910F9108951F9394
S1130BE083E00E9400019927182F882319F083E0DD
S1130BF00E949705812F99271F910895CF92DF9224
S1130C00EF92FF920F931F93CFB6F894DD240E94C6
S1130C102102DC01CB0166E470E00E94531AFBE080
S1130C20EF2EF12CE80EF91EF0925802E0925702D2
S1130C300E94AA0200271127A80197010E946703B6
S1130C40CFBE1F910F91FF90EF90DF90CF9008954A
S1130C50CF92DF92EF92FF920F931F93CF93DF9384
S1130C608C01F62E6A01E22E8FB7F894C82FDD2787
S1130C7060E080E00E94CE00882321F0CFBF80E0B6
S1130C8090E01EC0CFBF0F0D111D802F80680E9401
S1130C906401F82E16950795802F807C0E946401CC
S1130CA00E2D0AC0EE2DFF27E01BF109EC0DFD1DF2
S1130CB080810E94640101500023A1F78F2D9927A0
S1130CC0DF91CF911F910F91FF90EF90DF90CF9024
S1130CD00895CF93DF93CDB7DEB72C970FB6F89472
S1130CE0DEBF0FBECDBF8FB7F894282FAE014F5F84
S1130CF05F4FDA01E0EBF1E088E001900D92815062
S1130D00E1F780915601909157018987892F99279E
S1130D108A878091690190916A018B87892F99272D
S1130D208C872FBF2CE060E080E691E00E942806CB
S1130D302C960FB6F894DEBF0FBECDBFDF91CF91D6
S1130D4008951F93CF93DF93182F8FB7F894C82F6C
S1130D50DD2760E080E00E94CE00882321F0CFBF31
S1130D6080E090E005C0CFBF812F0E9464019927E5
S1130D70DF91CF911F910895EF92FF920F931F93EC
S1130D80CF93DF93182F7B01042F8FB7F894C82FCC
S1130D90DD2760E080E00E94CE00882321F0CFBFF1
S1130DA080E090E014C0CFBF1064812F9927909306
S1130DB06E0180936D010E946401182F402F552706
S1130DC0B70180E090E00E94DE01812F9927DF9136
S1130DD0CF911F910F91FF90EF900895C09860916B
S1130DE01B0170911C0141E08FE30E94BC06089531
S1130DF082E090E0909348018093470181E08093E2
S1130E00550120E030E080910301843011F421E0A9
S1130E1030E0232B29F484E00E940001882319F494
S1130E200E94EE06089584E00E94970508951F929B
S1130E300F920FB60F9211242F933F934F935F930A
S1130E406F937F938F939F93AF93BF93EF93FF938E
S1130E508091470190914801019749F482E090E024
S1130E6090934801809347010E94F80605C0809141
S1130E704D018F5F80934D01FF91EF91BF91AF9131
S1130E809F918F917F916F915F914F913F912F919E
S1130E900F900FBE0F901F9018951F938091130110
S1130EA0882309F04BC0109103011F3F09F046C08D
S1130EB060E00E94CE00882309F440C081E0809362
S1130EC0B901809137018823E1F11092B90185E0DD
S1130ED090E045C0923069F5C09A8091040120E009
S1130EE030E08F3F11F421E030E0232BE9F410933C
S1130EF006018F3F19F42FEF30E00DC0282F332760
S1130F00F901EC59FE4F8081809304018F3F11F465
S1130F1010930501108320934E0181E08093140106
S1130F208AE00E943D0105C010930601109214014D
S1130F3011C080911401882369F00FC081E090E012
S1130F400EC08091060190911401882319F2923009
S1130F5021F0EFCF80E00E94DF0080E090E01F915D
S1130F6008951F93CF93DF939FB7F894C92FDD277C
S1130F701C2F90910301981721F0CFBF81E090E0DE
S1130F803AC08FEF80930301309113013323F1F4BE
S1130F908FB7F89499271092A8018FBF0E944D072C
S1130FA0CFBF11C02093030181E090E002C0880FFD
S1130FB0991F4A95E2F7809538233093130188E00E
S1130FC00E943D011FBF80E090E015C080E065E015
S1130FD0E32FFF270E94471A292F492F5527CF01B6
S1130FE0042E02C0959587950A94E2F780FDDACF26
S1130FF0822F8F5FEFCFDF91CF911F9108951F93C1
S1131000CF93DF938FB7F894C82FDD271C2F8091DF
S1131010470190914801892B29F484E00E94B1078B
S1131020CFBF1EC01092550180914D01882311F04D
S1131030B79904C00E9908C0882319F08150809391
S11310404D010E94F8060BC081E090E090934801A6
S11310508093470110924D0184E00E94B1071FBFA5
S1131060DF91CF911F9108950E940602C09AC09803
S113107088E00E94A10688E00E94A106C09A84E04C
S11310800E94B1070E94FF070895FF920F931F93D8
S1131090CF93DF93F82E8B018FB7F894C82FDD27F9
S11310A060E080E00E94CE00882321F0CFBF80E082
S11310B090E00CC0CFBF8F2D0E946401812F99272F
S11310C00E946401802F0E9464019927DF91CF91CF
S11310D01F910F91FF9008951F931FB7F89480916B
S11310E04C01882319F460E070E009C060E080914D
S11310F05402882309F461E081E06827772780910E
S11311005801882319F480E090E00AC090E08091AF
S1131110AF01882309F491E081E09827892F99276A
S1131120762F6627770F770F770F54E0880F991F74
S11311305A95E1F7826E9262682B792B81E10E94C5
S11311404508812F99278FBF1F9108958FB7F89471
S113115099276091B8018FBF85E0689FB001112481
S1131160625D7E4F706488E10E9445080895EF92A5
S1131170FF921F93CF93DF93E0905901F0905A01AF
S1131180F70182A59927182F882309F41FE1C09835
S113119080914B01811749F0612F77276F7170702F
S11311A0606E706885E10E94450810934B01F70159
S11311B010818FB7F894C82FDD2760E080E00E948B
S11311C0CE00882311F0CFBF12C0CFBF8EE390E0D2
S11311D090936E0180936D018EE30E94640111501F
S11311E0412F552760E070E0C7010E94DE01DF91C6
S11311F0CF911F91FF90EF9008950F931F93CF937A
S1131200DF93EC010FB7F89411270E947000FC01E2
S11312108FE380830FBF109252021092510261E05B
S113122082E00E94B400882319F085E090E072C047
S11312308091BA018F5F8093BA0181508B838FB7FD
S1131240F894082F112762E081E00E94CE008823E1
S113125029F40FBF0E94FF0181E05BC08FB7F894AF
S1131260992724E02093A9018FBFD0937401C093E0
S113127073010FBFFE013196818129819927982F2F
S113128088273327822B932B80729C7C8983892F18
S1131290992781832981982F882733272164822BDA
S11312A0932B8983892F992781831CA618A619A6B5
S11312B019AA18AA1FA680E88EA761E06093AC0162
S11312C040917301509174018FB7F894282F3327FC
S11312D080911501909116018830910511F00197C4
S11312E011F02FBF15C082E090E090931601809317
S11312F0150160935B0250935A0140935901109277
S11313001F012FBF0E94EF05882311F40E94B70824
S113131080E09927DF91CF911F910F910895CF938A
S1131320DF93DA01422F2D3118F082E090E05EC0A5
S1131330ED018B876E83872F99278F832FB7F894BE
S1131340332780915601909157012FBFFD0184836B
S1131350892F992785832FB7F89433278091070124
S1131360909108012FBF8887892F99278987319603
S1131370818129819927982F882733272064386809
S1131380822B932B8983892F99278183435F4C93E5
S11313904D5080910A01882359F010920A01642F5C
S11313A0CD010E94FD089927282F8823A9F417C08E
S11313B0842F99279093720180937101B0931A013D
S11313C0A09319018CE00E943D0180910A018823B9
S11313D049F489E090E00AC08FEF80930A01822FDC
S11313E0992704C010925F0180E090E0DF91CF91D3
S11313F00895CF93DF93FB01DB0116968683892F33
S11314009927ED01898386E0838780917901909102
S11314107A01892B19F085E090E02BC070937A0152
S113142060937901435F40834D5080910D0188237F
S113143019F480E090E01DC08385ED016981772770
S1131440762F662726813327622B732B10920D018A
S1131450242FAF010E948F099927282F882339F060
S113146081E080930D0110927A0110927901822F0C
S11314709927DF91CF9108951F93582F80910E01E2
S11314808823C9F580910001909101018093CE01D8
S1131490892F99278093CD0184E68093D4011092FB
S11314A0D3011092D2011092D10182E08093CA013B
S11314B01092C90111E01093D0011092CF01209134
S11314C0BF013327322F22278091BE0199278062E2
S11314D0282B392B2093BE01232F33272093BF01C0
S11314E040E16DEB71E0852F99270E94F90988236B
S11314F011F410930E011F9108958D5B914069F4CE
S113150010920E0180910201843038F40E943C0A4A
S1131510809102018F5F8093020108950F931F93BE
S1131520CF93DF93182FEB01042FE82FFF27EE0F43
S1131530FF1FE758FE4F1182108210920D01E091B7
S11315407901F0917A01309721F08091500280FF67
S11315500EC081E080930D0103C08EE00E943D0126
S11315601123B9F4602FCE010E947D0A12C020819C
S11315702D50332767817727762F66278681992711
S1131580682B792BAF0183850E948F09882341F34F
S1131590E4CFDF91CF911F910F9108959B0180912A
S11315A00D01882349F46091790170917A016217E1
S11315B0730711F40E948E0A0895AF92BF92CF92DE
S11315C0DF92EF92FF920F931F93CF93DF935B0110
S11315D06C01C0E0D0E0EDE7F1E0608561FF4FC051
S11315E02081318142815381E480F5800681178115
S11315F0D601C501821B930BA40BB50B8E159F0559
S1131600A007B107E0F160FF03C06D7F608708C0E9
S11316102E0D3F1D401F511F20833183428353836E
S1131620C13029F0C13018F0C23079F508C04AE061
S113163050E060E070E082E00E94780526C00E94DD
S113164021029B01AC01809100019091010101975D
S1131650E1F420935001309351014093520150938F
S113166053018091BB019091BC0101969093BC0100
S11316708093BB01809102010E943C0A06C021961E
S11316803996C430D10509F0A8CF81E00E943D010C
S1131690DF91CF911F910F91FF90EF90DF90CF904A
S11316A0BF90AF9008951F93182F81E090E090931E
S11316B0160180931501109237010E944D078FB7D0
S11316C0F894992710930F018FBF84E00E943D0185
S11316D01F91089561E081E00E94B4008823E9F439
S11316E08FB7F894282F332780911001909111011E
S11316F0892B11F02FBF20C081E090E0909311015D
S1131700809310012FBFDD9A0E94AA0224E130E0E9
S113171040E050E00E9467030FC062E081E00E9455
S1131720CE00882319F089E090E0089561E081E01B
S11317300E94CE00882319F080E090E0089585E0AF
S113174090E008951F93CF93DF938FB7F894C82F39
S1131750DD271C2F80911501909116010897C9F47B
S113176089E00E94A10683E00E94B107C09A81E04B
S113177090E090931601809315018FB7F894992700
S113178023E020930F018FBF84E00E943D01CFBF6F
S113179030C0C09880915B02882311F085E001C0BD
S11317A084E00E94A10683FD09C080E00E94A10696
S11317B083FF04C085E090E020E003C083E090E074
S11317C021E09093160180931501C09A1FBF222334
S11317D041F010921F0183E00E94B1070E94FE05B0
S11317E008C00E94AA0220E431E040E050E00E94D8
S11317F06703DF91CF911F91089578941F920F9200
S11318000FB60F9211241F932F933F934F935F931F
S11318106F937F938F939F93AF93BF93EF93FF93B4
S113182087B78F7E87BF78941FB7F8948091600143
S113183090916101A0916201B09163010097A105AB
S1131840B10509F051C080911501909116018530C0
S1131850910561F18630910530F48330910549F0AA
S1131860049781F51AC087309105F1F0089751F576
S113187014C0869B0FC084E090E09093160180937F
S113188015010E94AA0227E030E040E050E00E94E7
S1131890670318C00E94FE0515C00E94EF05882347
S11318A089F40E94A20B0EC080E00AC089E00E9465
S11318B0A10681E00E94820383E00E94B10787E0D1
S11318C00E94530B8091100190911101019771F4C2
S11318D082E090E09093110180931001DE98DE9AEB
S11318E080E00E94970502C00E94C702812F9927B9
S11318F08FBFFF91EF91BF91AF919F918F917F9196
S11319006F915F914F913F912F911F910F900FBE57
S11319100F901F901895EF92FF920F931F93CF9300
S1131920DF938B0180916D0190916E0186FF40C120
S11319308F7B8F3309F08EC1C0911B01D0911C01A4
S11319405881509349018091470190914801853015
S1131950910509F443C08630910509F48AC00297C1
S113196009F01FC185E090E09093480180934701FE
S113197040913601852F99270196242F3327281764
S113198039074CF1B79906C00E9904C0451B415064
S113199040933601409149014A32E8F44423A1F0CE
S11319A0BE016F5F7F4F483018F047E050E007C03A
S11319B086E090E09093480180934701552780E0AA
S11319C090E00E94DE0146C110925501C09A84E065
S11319D00E94B107E3C00E9434083CC186E090E055
S11319E0909348018093470180915801882309F41A
S11319F039C08091AF018823A9F5898185FF32C060
S1131A008F814E812FB7F8943327609169017091CB
S1131A106A012FBF9927982F88275527842B952B48
S1131A208617970759F08F812E819927982F882739
S1131A303327822B932B8F5F9F4FA1F4898187706B
S1131A40813081F4C09AC0988AE00E94A106C09AAD
S1131A50C0984091490147502896BE018FE30E94E7
S1131A60BC06F8C040914901475055272896BE014D
S1131A70A6CFC09A80914D01882339F484E00E9456
S1131A80B10780914D01882311F0B7990AC00E9BCC
S1131A9008C090914902992321F0809149018B302B
S1131AA038F480911B0190911C010E9412023DC0E8
S1131AB0913001F5E0914F02FF27EE0FFF1FEE0F6B
S1131AC0FF1FEB50FE4F2081318142815381E09111
S1131AD01B01F0911C0121ABBB27A52F942F832F51
S1131AE080ABCA01AA27BB2787A7252F3327442702
S1131AF0552726A780914F029927019668E070E048
S1131B000E94671A80934F0280914902815080930A
S1131B104902882351F080911B0190911C010E947D
S1131B20120210924F021092490280914901FE0163
S1131B30E80FF11D808187FF31C0012B79F16981A4
S1131B406770E0911B01F0911C01623019F5A091BE
S1131B505901B0915A01109709F1809115019091A2
S1131B6016010797D9F4ED019B8183819817B1F48D
S1131B7087B78F7E87BF908181E08CA7E90FF11D25
S1131B808291319688A780818F7789A780E00E940F
S1131B90530B04C0613011F48BE02AC00E94FF078C
S1131BA059C010925501C09A84E00E94B10752C0F6
S1131BB08E3309F04FC0C09A80911501909116019F
S1131BC00897C9F4C09889E00E94A106C09A83E0EE
S1131BD00E94B10781E090E0909316018093150173
S1131BE08FB7F894992723E020930F018FBF84E0E7
S1131BF00E943D012FC080915B02882349F484E058
S1131C0090E090931601809315010E94A20B22C0CC
S1131C1083E00E94B10783E090E0909316018093E3
S1131C2015010E942102DC01CB0166E371E00E94F0
S1131C30531A1BE0E12EF12CE80EF91EF09231014B
S1131C40E09230010E94AA0200271127A8019701FF
S1131C500E946703DF91CF911F910F91FF90EF9046
S1131C6008951F920F920FB60F9211242F933F9352
S1131C704F935F936F937F938F939F93AF93BF9390
S1131C80EF93FF932FB1E091A101F091A20130975E
S1131C9039F08091770190917801E80FF91F208342
S1131CA080917701909178010196909378018093C7
S1131CB0770180E00E94E50040911D0150911E01D2
S1131CC080917701909178018417950718F40E9408
S1131CD070011CC06091A1017091A2018091550214
S1131CE0909156021092A2011092A10110925602F4
S1131CF01092550210921E0110921D01109278014B
S1131D00109277012FB120E00E948B0CFF91EF918C
S1131D10BF91AF919F918F917F916F915F914F91FF
S1131D203F912F910F900FBE0F901F9018952F92F7
S1131D303F924F925F926F927F928F929F92AF9257
S1131D40BF92CF92DF92EF92FF920F931F93CF93A4
S1131D50DF93CDB7DEB7AC970FB6F894DEBF0FBEF6
S1131D60CDBF873009F4ABC1883098F4833009F4CF
S1131D702DC1843038F4813009F45BC0823008F01E
S1131D80B0C024C0853009F478C1863008F090C111
S1131D9023C18B3009F4C0C28C3038F4893009F483
S1131DA084C28A3008F0A4C2C3C18D3039F08D30AA
S1131DB008F40BC68E3009F060C652C680915002FA
S1131DC0882309F45AC690E011E028C680914A019C
S1131DD0882361F52091F1013091F2014091F301E2
S1131DE05091F401EFB7F894FF276091A40170912A
S1131DF0A5018091A6019091A701E0903201F09095
S1131E00330100913401109135016E0D7F1D801F47
S1131E10911FEFBF2093F1013093F2014093F3013E
S1131E205093F40110924A010E943F040E949503CA
S1131E3043C00E9495037B018C018FB7F8949927C6
S1131E40109276018FBF5FEF652E5FEF752E5FEF07
S1131E50852E5FE7952E60E0EDE7F1E0808581FF58
S1131E601CC080819181A281B381A8019701281BA4
S1131E70390B4A0B5B0BDA01C90124813581468198
S1131E805781281B390B4A0B5B0B26153705480570
S1131E9059051CF439014A0161E0399631E0E13A0F
S1131EA0F307E1F6662309F4E8C5161417041804C9
S1131EB019042CF0C801B7010E94DD0ADEC5609246
S1131EC0F1017092F2018092F3019092F40181E0A9
S1131ED080934A01A4019301C801B7010E943F0401
S1131EE0CCC50FB7F894112781E00E94820341E02A
S1131EF0E42EF12CF0921601E092150110921701D4
S1131F001092370110924B010FBF0FB7F8941127AD
S1131F100E940602F0924801E09247011092550196
S1131F2089B78F7B89BF80E488BF8AB780628ABF04
S1131F308AB78F7E8ABF89B7806489BF0FBF8FB786
S1131F40F894082F112780911001909111010497A2
S1131F5019F483E00E94A1060FBF0FB7F89411276C
S1131F60C09A80E00E94B1070FBF8FB7F8949927F9
S1131F7022E02093A9018FBF80910001909101017B
S1131F80019789F41092BC011092BB01EE2408EE73
S1131F9013E020E030E040E050E060E070E080E0FA
S1131FA00E9459056AC58FEF9FEFAFEFBFEF809393
S1131FB0500190935101A0935201B0935301109298
S1131FC0AE011092AD011092750157C58FB7F89408
S1131FD099271092A90171C08FB7F8949927F090AE
S1131FE00F018FBF63E081E00E94CE00882359F186
S1131FF00FB7F8941127109216011092150187B7A4
S11320008F7E87BF87B78F7D87BF83E00E94B1072C
S1132010C09A0FBF0FB7F89411271092480110927D
S113202047010E940602C09A89B78F7B89BF0FBF00
S11320301092110110921001DE98DD98DE9A83E06F
S11320400E943D0107C08FB7F894992722E020939E
S1132050A9018FBF00917301109174010E94FF01C7
S11320608091510290915202892B09F006C58FEF9D
S113207080930A014F2DB801C8C48FB7F894282F54
S11320803327122F80915902882309F581E0809328
S113209059028091100190911101049721F481E07B
S11320A00E94970503C086E00E943D011FBFE5C45E
S11320B08FB7F8949927109259028FBFDEC48FB757
S11320C0F894282F332780911201882311F02FBF11
S11320D0D4C42FBF80B3992736E0969587953A9557
S11320E0E1F7182F117090916B0180916C018917A1
S11320F0D9F01917C9F484E090E09093110180930A
S113210010018FB7F894992721E0209312018FBF13
S113211060E070E08DE10E9445080E946906C09A63
S1132120C09882E00E943D0110936C0187E06DC06D
S11321308FB7F8949927109103018FBF123009F4D7
S113214067C0133030F4112359F0113009F095C4ED
S113215048C0133009F476C0143009F08EC4A2C00C
S1132160C0988FB7F894082F11278091100190918F
S113217011010297A1F583E090E0909311018093FF
S1132180100168E170E08DE10E94450881E08093D0
S11321906B011092120180B3992726E096958795DA
S11321A02A95E1F78170907080936C0187E00E941A
S11321B03D0181E00E94A1066FE772E08CE10E947C
S11321C045080E94A6080E946C0866E57AE287E149
S11321D00E9445086FEF70E885E10E9445080FBF33
S11321E04CC4C09886E00E94A1060E94A6080E94E2
S11321F06C080E946906C09AC09883E00E94A106F8
S1132200C09A81E00E94B10786E00E943D0135C476
S1132210C0988FB7F894082F112760E080E00E94DF
S1132220CE00882311F00FBF0AC00FBF83E50E94C0
S1132230640180E00E94640180E00E946401C09A0D
S113224082E02DC08FB7F8949927209115018FBF94
S1132250243039F0283041F0223001F50E94B708CB
S11322600CC40E94A20B09C4C09889E00E94A10674
S1132270C09A83E00E94B1078FB7F894992721E0B0
S113228030E030931601209315018FBF8FB7F89477
S1132290992710930F018FBF84E0B7CF83E00E948A
S11322A0B107EBC30E94EE06E8C30FB7F8941127F9
S11322B040911D0150911E016091A1017091A201F4
S11322C080915502909156021092A2011092A101A0
S11322D0109256021092550210921E0110921D0186
S11322E0109278011092770120E00E948B0C77CF36
S11322F02FB7F894332780914E018093060182E032
S1132300809314012FBF80910601882309F0B5C37F
S1132310B89AC09888E079CFA0911B01B0911C01B4
S11323201C919D01210F311DF9018081881F88278F
S1132330881FFD0183A7F90180818F77FD0181A7A3
S113234021503040F9018081FD0180A7A0911B013B
S1132350B0911C01FD0132818FB7F8949927209127
S11323604C018FBF222309F490C0832F992796959F
S1132370879596958795837090708230910541F585
S1132380878146812FB7F894332760916901709152
S11323906A012FBF9927982F88275527842B952BBF
S11323A08617970719F481E090E06CC0FD018781DE
S11323B0268140E050E09927982F88273327822BE5
S11323C0932B8F5F9F4F11F441E050E0CA015AC034
S11323D0039709F0F1C29E012F5F3F4F40EB51E09C
S11323E088E0FA010190AF01F90101929F01815047
S11323F0C1F79E012F5D3F4FAE014F5F5F4F88E0F5
S1132400FA010190AF01F90101929F018150C1F7D6
S11324109E01275F3F4FAE014F5D5F4F88E0FA0199
S11324200190AF01F90101929F018150C1F79E0112
S11324302F5E3F4FAE01475F5F4F88E0FA01019086
S1132440AF01F90101929F018150C1F79E01275EFE
S11324503F4FAE014F5E5F4F88E0FA010190AF013C
S1132460F90101929F018150C1F748E050E0BE019B
S1132470675E7F4FCD0106960E94D01A892B09F022
S11324809BC203C0882309F497C21D3008F494C288
S113249040901B0150901C01F2012281822F992748
S11324A036E0969587953A95E1F7039719F468E035
S11324B070E002C062E070E0822F992796958795BC
S11324C09695879583709070039719F488E090E04F
S11324D002C082E090E026E030E0420E531E40E06D
S11324E050E020E030E0F201E80FF91F8AEF9FEF9F
S11324F0480E591E05C08191480F511D2F5F3F4F53
S113250026173707C4F3F20163818FEF80935302D8
S11325108FB7F894782F20E030E0E4E2F1E0808196
S113252091818417950731F48281861709F481C15A
S1132530209353022F5F3F4F33962430310579F7B0
S11325407FBF909153023FB7F8949F3F21F0809151
S11325501801891799F420911801822F9927FC01F9
S1132560EE0FFF1FE80FF91FEC5DFE4F5183408310
S113257062832F5F2370209318010CC0892F992741
S1132580FC01EE0FFF1FE80FF91FEC5DFE4F5183B6
S113259040836283832F99278FBF0FB7F894112745
S11325A0C2010E947000FC0190810FBFF20183A55B
S11325B0882309F4FDC19F3309F0FAC1878146815C
S11325C02FB7F894332760910701709108012FBF4A
S11325D09927982F88275527842B952B861797079B
S11325E061F0878126819927982F88273327822BAA
S11325F0932B8F5F9F4F09F0DBC1F20183858630F7
S113260009F0D6C16CE0262E312C240C351C8485AF
S11326109201235F3F4F3AA729A725859927982F31
S113262088273327822B932B019709F0E1C08685F5
S113263027859927982F88273327822B932B20913E
S1132640AD013091AE012817390708F0D1C02489B3
S1132650E5888689A7889927AA27BB276624782E28
S1132660892E9A2E332744275527522F4427332760
S11326702227FF24002711278701FF24EE242E2977
S11326803F29402B512BBB24CC24DD242A293B2970
S11326904C295D29622A732A842A952A6092500162
S11326A070925101809252019092530181898093DA
S11326B07501868527859927982F88273327822BAC
S11326C0932B9093AE018093AD0166859785208D01
S11326D0A18DE28CA38C80910E01882309F088C01F
S11326E07727762F6627892F9927682B792BFF2444
S11326F000271127102F0F2DFE2CEE2433274427FB
S11327005527522F4427332722278A2F9927AA2770
S1132710BB27DC0199278827282B392B4A2B5B2BD5
S11327208A2D9927AA27BB27282B392B4A2B5B2BC9
S1132730E22AF32A042B152B8091000190910101C8
S11327408093CE01892F99278093CD016092D40183
S1132750BB27A92D982D872D8093D301C401AA27C7
S1132760BB278093D201892D9927AA27BB27809361
S1132770D101B1E0AB2EA092CA011092C901A0927E
S1132780D0011092CF016093CC01672F772760931B
S1132790CB01E092D801BB27A12F902F8F2D8093DE
S11327A0D701C801AA27BB278093D601E12EFF24B5
S11327B000271127E092D5012091BF013327322F42
S11327C022278091BE0199278062282B392B2093E0
S11327D0BE01232F33272093BF0140E16DEB71E04D
S11327E082E090E00E94F909882311F4A0920E017E
S11327F0F1018081E9A5FAA520819927982F8827DE
S11328003327822B932B029709F0D2C02091000129
S1132810309101013CA72BA72130310561F480914F
S11328204D0290914E02019690934E0280934D0278
S1132830BFC07FBFBDC0F10124859585A684978460
S11328406681178180847184E284638480910E019F
S1132850882309F0ADC0BB24CC24DD24DC2CCB2C94
S1132860BA2CAA24332744275527522F4427332729
S11328702227892F9927AA27BB27DC019927882794
S1132880282B392B4A2B5B2B892D9927AA27BB2769
S1132890282B392B4A2B5B2BA22AB32AC42AD52AEC
S11328A07727762F6627812F9927682B792BFF248A
S11328B000271127102F0F2DFE2CEE24282D33274F
S11328C044275527522F442733272227872D99271A
S11328D0AA27BB27DC0199278827282B392B4A2BC9
S11328E05B2B862D9927AA27BB27282B392B4A2B0C
S11328F05B2BE22AF32A042B152BFBA5F093CE01C4
S11329002BA53CA5832F99278093CD01E092D40178
S1132910BB27A12F902F8F2D8093D301C801AA2705
S1132920BB278093D201E12EFF2400271127E092D8
S1132930D10182E08093CA011092C9016093D00151
S1132940672F77276093CF01A092D801BB27AD2DC5
S11329509C2D8B2D8093D701C601AA27BB2780937A
S1132960D601AD2CBB24CC24DD24A092D5015091FA
S113297075015523E9F02091BF013327322F222717
S11329808091BE0199278062282B392B2093BE01A8
S1132990232F33272093BF0140E16DEB71E0852F96
S11329A099270E94F909882319F481E080930E0184
S11329B050921C0140921B018FB7F89499271092F2
S11329C055018FBF0E94FF0758C090915F0180910D
S11329D00A01981709F451C090930A019923D1F47C
S11329E00091190110911A0160917101C8010E94AE
S11329F0FD08482F5527442309F43FC08FEF8093E7
S1132A000A016091190170911A01F80183850E94ED
S1132A10CE0A33C08FEF80930A012FC02091500259
S1132A20812F8223C1F0E92FFF27EE0FFF1FE75804
S1132A30FE4F4081518111821082812F809528237D
S1132A4020935002992339F463E0CA010E947D0A5D
S1132A50110F91E0E3CF9F5F983078F4110FDECF30
S1132A6080910D01E82FFF27EE0FFF1FE758FE4F5F
S1132A706081718141E00E948E0AAC960FB6F89491
S1132A80DEBF0FBECDBFDF91CF911F910F91FF909D
S1132A90EF90DF90CF90BF90AF909F908F907F90FA
S1132AA06F905F904F903F902F90089580914A02CD
S1132AB08F3FB1F0282F3327F901E85CFE4F808166
S1132AC080934A028F3F11F480935A028FEF8083E0
S1132AD02F3F31F0822F0E94970E81E090E00895FD
S1132AE080E090E008951F93CF93DF93CDB7DEB7D6
S1132AF0E0970FB6F894DEBF0FBECDBF1FB7F894B2
S1132B004FE050E06FEF70E088E391E00E94DD1A3F
S1132B108FEF80934A0280935A0281E08EBD88E051
S1132B2080BF83E083BF8CB59DB54AE72CB53DB526
S1132B302817390708F44150442311F0C901F6CF8E
S1132B4092B782B78917E9F32CB53DB592B782B72E
S1132B508917E9F38CB59DB5821B930B409665E00C
S1132B60969587956A95E1F790934C0280934B0272
S1132B7013BE83B78EBD8EB580BF12BE1DBC1CBCF8
S1132B808FEF86BF86B780937C0080B799278770C4
S1132B909070892BD1F7D29AD19AD09ADA9AD99A8D
S1132BA0D89A15BA8FEF84BBD498DC981DBC1CBC92
S1132BB087B7846087BF8EB5887F84608EBD0E948E
S1132BC056158823E1F78FEF80934F01E4E2F1E09B
S1132BD08FEF9FEF918380831282339621E0E0335D
S1132BE0F207C1F70E9421026093BA0185E192E0E5
S1132BF090931C0180931B018E98B89A8C988FEF48
S1132C00809364011092A8011092A9011092AA0164
S1132C101092AB01B89AD69AD59A8FB7F89499279F
S1132C2020910701309108018FBF30936A012093EE
S1132C3069010E94590429A73AA74BA75CA76DA76D
S1132C407EA78FA798ABDE019196FE01B99688E026
S1132C5001900D928150E1F7DE015196FE01B1968B
S1132C6088E001900D928150E1F7DE015996FE0152
S1132C70719688E001900D928150E1F7A0EBB1E0EC
S1132C80FE01799688E001900D928150E1F78091E0
S1132C900901992790935701809356018FE18093FE
S1132CA0A3018AE18093B8010E94590429A73AA795
S1132CB04BA75CA76DA77EA78FA798ABDE01919663
S1132CC0FE01B99688E001900D928150E1F7DE0192
S1132CD01196FE01B19688E001900D928150E1F7C2
S1132CE0DE011996FE01319688E001900D92815023
S1132CF0E1F7A0EBB1E0FE01399688E001900D9276
S1132D008150E1F7A0EBB1E0FD0137969C91808101
S1132D108D939083319781E0E33BF807B9F781E025
S1132D2080934C0110925402809358011092AF0189
S1132D3080910001909101010196AA27BB278093FD
S1132D405B0190935C01A0935D01B0935E0180B739
S1132D50886080BF8BE083BF86EE81BF87B78260C7
S1132D6087BF0E94BC030E9456158823E1F7812F78
S1132D7099278FBF78940E946A0B8FB7F894482FD5
S1132D8055274BC087B7992783709070892B19F406
S1132D90E5E0F0E013C080B7992787709070892B25
S1132DA0D1F781B792B7891B8C3030F082B7853F59
S1132DB018F4E3E0F0E002C0E2E0F0E087B7887BDB
S1132DC0C1F480917D008B7FA1F46E9912C08AB109
S1132DD090919A00892B887161F48091740082FD2E
S1132DE008C0379B03C081E090E005C085E090E017
S1132DF002C080E090E025B78E1708F4E82FFF2783
S1132E00E457FF4FE491237E2062E22BE5BF7894E0
S1132E108895F89485B78F7D85BF80914A028F3F4E
S1132E2009F4B0CF282F3327F901E85CFE4F8081E5
S1132E3080934A028F3F11F480935A028FEF80836C
S1132E402F3F09F49FCF4FBF822F0E94970E95CF3B
S1132E5078941F920F920FB60F9211242F923F92E3
S1132E604F925F926F927F928F929F92AF92BF9296
S1132E70CF92DF92EF92FF920F931F932F933F9382
S1132E804F935F936F937F938F939F93AF93BF936E
S1132E90CF93DF93EF93FF93C6B5D7B58FB7F8946D
S1132EA0282E0E94AA029B012C1B3D0B4427552768
S1132EB02B013C01421A530A640A750A80911501D8
S1132EC0909116018530910521F0069709F0E0C034
S1132ED0BFC086E090E0909316018093150131E025
S1132EE0332E309254011092170180E00E94820325
S1132EF0E0915901F0915A0141AABB27A72D962DC3
S1132F00852D80ABC301AA27BB2787A7872D9927C7
S1132F10AA27BB2786A7E0915901F0915A0185A5FC
S1132F20882309F484C06081655077274F01860E99
S1132F30971EF4012081E1808281A3809927AA272A
S1132F40BB27BA2FA92F982F882733274427552723
S1132F50522F442733272227FF24002711278701D4
S1132F60FF24EE242E293F29402B512BBB24CC24B3
S1132F70DD242A293B294C295D29822B932BA42B60
S1132F80B52B84199509A609B7098383292F3A2FEC
S1132F904B2F552722839D014427552721838B2FAF
S1132FA09927AA27BB278083C09824E0A40180E046
S1132FB090E00E942806C09AF4012081E180828179
S1132FC0A3809927AA27BB27BA2FA92F982F882730
S1132FD0332744275527522F442733272227FF24FA
S1132FE0002711278701FF24EE242E293F29402B97
S1132FF0512BBB24CC24DD242A293B294C295D29CF
S1133000822B932BA42BB52B840D951DA61DB71DC8
S11330108383292F3A2F4B2F552722839D01442741
S1133020552721838B2F9927AA27BB278083E091DB
S11330305901F0915A01818185FF02C03092370114
S113304083E00E94B10787B78F7E87BF84997AC0D7
S11330501092540181E00E948203E0915901F091A1
S11330605A01818185FF0FC087E090E0909316019B
S1133070809315010E94AA0220E031E040E050E074
S11330800E94670303C080E00E94530B849B5AC0D4
S113309080911701882391F580915401882371F55B
S11330A011E0109354010E94820380B320914902DD
S11330B0283098F4E0914F02E20FFF27E770F07098
S11330C0EE0FFF1FEE0FFF1FEB50FE4F40825182A9
S11330D0628273822F5F2093490210931701D09369
S11330E07001C0936F0184992DC0992774E096955F
S11330F087957A95E1F7182F117001C010E080913F
S113310054018130F9F4109254010E948203109208
S113311017011123B9F480916F0190917001C81BBC
S1133120D90B2A9778F480914902882319F08150A9
S1133130809349028091590190915A01009711F0AE
S11331400E9412022FBEFF91EF91DF91CF91BF91A8
S1133150AF919F918F917F916F915F914F913F912B
S11331602F911F910F91FF90EF90DF90CF90BF9020
S1133170AF909F908F907F906F905F904F903F9013
S11331802F900F900FBE0F901F901895ACE2B0E0F7
S1133190ECECF8E10C94991A222E332E442E552E81
S11331A0662E772E882E992EFE013196A8E0119274
S11331B0AA95E9F729823A824B825C826D827E82EB
S11331C08F829886FE013996B8E01192BA95E9F794
S11331D0A986BA86CB86DC86ED86FE860F87188B99
S11331E089819A81AB81BC8189A79AA7ABA7BCA727
S11331F07C018D018FEF9FEFA0E0B0E0E822F9227F
S11332000A231B2389A59AA5ABA5BCA51D014424AB
S1133210552489859A85AB85BC858DA39EA3AFA3D0
S1133220B8A75C016D018FEF9FEFA0E0B0E0A8228A
S1133230B922CA22DB228DA19EA1AFA1B8A53D016E
S113324088249924C801B701A60195010E947A1A1D
S113325069A37AA38BA39CA3C801B701A40193011A
S11332600E947A1A7B018C01C201B101A601950169
S11332700E947A1A5B016C01C201B101A40193019D
S11332800E947A1A3B014C01EA0CFB1C0C1D1D1D0B
S113329089A19AA1ABA1BCA19D01442755272E0D5C
S11332A03F1D401F511F2A153B054C055D0540F489
S11332B080E090E0A1E0B0E0680E791E8A1E9B1EBB
S11332C0CA01AA27BB27860D971DA81DB91D8D8F7E
S11332D09E8FAF8FB8A3A9013327222789A19AA172
S11332E0ABA1BCA1A070B070280F391F4A1F5B1F8F
S11332F0298F3A8F4B8F5C8FA98CBA8CCB8CDC8C4A
S1133300ED8CFE8C0F8D18A1FE01719698E0119240
S11333109A95E9F7ED8AFE8A0F8B188F2D813E81ED
S11333204F8158856DA17EA18FA198A50E947A1A1C
S11333303B014C012D853E854F85588969A57AA5A9
S11333408BA59CA50E947A1A2D893E894F89588D98
S1133350260F371F481F591F260D371D481D591D9D
S11333602D8B3E8B4F8B588F6D887E888F88988CE1
S11333702A2D3B2D4C2D5D2D662D772D882D992DD5
S1133380E2E1AC960C94B51AA0E1B0E0EAECF9E104
S11333900C94991A222E332E442E552E662E772EF7
S11333A0882E992E002309F466C088E0FE01319628
S11333B011928A95E9F729833A834B835C836D8361
S11333C07E838F829887E0E2E01B1E16CCF52D8168
S11333D03E814F815885602F772767FD7095DA010C
S11333E0C901062E04C0B695A795979587950A94AA
S11333F0D2F78D879E87AF87B88B04C0220F331F07
S1133400441F551FEA95D2F789819A81AB81BC810B
S113341004C0B695A795979587956A95D2F7282BFA
S1133420392B4A2B5B2B29873A874B875C87298466
S11334303A844B845C846D847E848F8498881BC01A
S11334401D861E861F86188A2E2F332727FD30954A
S1133450309521953F4F8D819E81AF81B88504C001
S1133460B695A795979587952A95D2F789879A87D0
S1133470AB87BC87DCCF222D332D442D552D662DF3
S1133480772D882D992DE2E160960C94B51A991B3D
S113349079E004C0991F961708F0961B881F7A9547
S11334A0C9F780950895AA1BBB1B51E107C0AA1F49
S11334B0BB1FA617B70710F0A61BB70B881F991FD1
S11334C05A95A9F780959095BC01CD01089597FB75
S11334D0092E07260AD077FD04D0E5DF06D00020A8
S11334E01AF4709561957F4F0895F6F7909581953C
S11334F09F4F0895629FD001739FF001829FE00D5A
S1133500F11D649FE00DF11D929FF00D839FF00D5E
S1133510749FF00D659FF00D9927729FB00DE11D0A
S1133520F91F639FB00DE11DF91FBD01CF011124E7
S113353008952F923F924F925F926F927F928F9253
S11335409F92AF92BF92CF92DF92EF92FF920F932E
S11335501F93CF93DF93CDB7DEB7CA1BDB0B0FB638
S1133560F894DEBF0FBECDBF09942A8839884888F5
S11335705F846E847D848C849B84AA84B984C8848B
S1133580DF80EE80FD800C811B81AA81B981CE0F82
S1133590D11D0FB6F894DEBF0FBECDBFED01089567
S11335A0FB01DC0104C08D910190801921F441508C
S11335B05040C8F7881B990B0895DC0101C06D9336
S10D35C041505040E0F70895FFCF9A
S11135CA010002FFFFFFFF010022FFFFFF01CF
S9030000FC
