S01800006275696C642F6D6963617A2F6D61696E2E73726563E5
S11300000C9449000C94D0040C94DA040C94E40489
S11300100C94EE040C94F8040C9402050C94ED0674
S11300200C940C050C9468000C9468000C94A70DB7
S11300300C94450F0C949A040C94B0040C9416057B
S11300400C9489040C94410D0C9468000C94680081
S11300500C9468000C9468000C9468000C9468007C
S11300600C94A5040C9468000C9468000C9468002B
S11300700C9468000C9468000C9468000C9468005C
S11300800C9468000C9468000C94680000081C1818
S1130090141011241FBECFEFD0E1DEBFCDBF11E09D
S11300A0A0E0B1E0E6EFF1E300E00BBF02C007908F
S11300B00D92AE30B107D9F712E0AEE0B1E001C065
S11300C01D92AD35B107E1F70E9427150C94FA187B
S11300D00C9400008FB7F894992708958FBF089562
S11300E0FC0182819927582F442781819927482B25
S11300F0592BCA01892F992786958695837090700C
S11301008230910559F08330910559F0892B19F407
S113011020E030E008C02CE93FEF05C022E030E0E9
S113012002C028E030E0CA0184E0989F812D99271D
S113013011248230910559F08330910559F0892BAF
S113014019F480E090E008C08CE99FEF05C082E0DC
S113015090E002C088E090E0280F391F2A5F3F4FEB
S1130160CF01820F931F0895282F9FB7F894662319
S113017049F0E82FFF27E155FE4F8081882311F0D5
S113018021E006C0E22FFF27E155FE4F608320E007
S1130190892F99278FBF822F99270895E82F8FB72A
S11301A0F894282F332790E0FF27E155FE4F8081F4
S11301B0861709F491E02FBF892F99270895882382
S11301C011F06E9A08956E980895882311F06F9A2D
S11301D008956F98089580E00E94DF00BA9ABB9852
S11301E0B99AB89A6C9A80E00E94E5006B986A9874
S11301F081E00E94DF00709A8DB18C7F8DB90895E3
S11302000F931F93CF93DF93182F8FB7F894C82FB2
S1130210DD270C2F61E080E00E94B400882321F0E8
S1130220CFBF85E090E024C0809105018823A1F42C
S113023080911501823081F409C082E08093150118
S1130240109205010E94EB00B89AC0981093020125
S113025080E00FBF99270CC080911501882369F3B2
S11302608FB7F89499271092AF018FBF81E0F1CF37
S1130270DF91CF911F910F910895282F9FB7F89484
S1130280E82FFF27E75CFE4F80818F3F81F4E091E8
S11302905B02E21771F40BC020934D0204C0FF27E8
S11302A0E75CFE4F208320935B0220E007C025E03B
S11302B005C080914D028F3F91F7EECF892F99278A
S11302C08FBF822F992708951F93182F81E00E94D2
S11302D0DF001FB9779BFECF8FB199271F91089537
S11302E08F929F92AF92BF92CF92DF92EF92FF9242
S11302F00F931F93CF93DF938FB7F8949927C090F0
S11303005602D09057028090A8019090A901C09104
S11303107501D091760120911E0130911F01EAE010
S1130320AE2EB12CAC0EBD1E2A153B0508F45901A6
S11303308FBF7401EC0EFD1E86010C0F1D1F14C02F
S1130340C114D10419F0F801808101C080E00E9439
S113035064018114910411F0F701808321960894BB
S1130360E11CF11C0F5F1F4FC5010197C817D90786
S113037038F381E00E94E5009FB7F894C114D104DA
S113038031F0CC0EDD1EF60180818FB901C01FB89B
S1130390D0937601C0937501892F99278FBF80E090
S11303A090E0DF91CF911F910F91FF90EF90DF903C
S11303B0CF90BF90AF909F908F9008952FB7F894EF
S11303C0332750931F0140931E019093570280934B
S11303D056027093A9016093A801109276011092BD
S11303E075012FBF452B29F08FB10E947001992709
S11303F0089589E00E943D0180E090E008958FB760
S1130400F89499271092B1018FBF089580E88093E2
S11304103701109252011092500210924C02109225
S11304204E010895CF93DF93FC0115A6DC019E963F
S1130430ED011B821A82198280E886A7DF91CF9191
S113044008952F923F924F925F926F927F928F9274
S11304509F92AF92BF92CF92DF92EF92FF920F934F
S11304601F93CF93DF93CDB7DEB729970FB6F894D8
S1130470DEBF0FBECDBF6FB76983F89420905801DB
S11304803090590140905A0150905B0166247724C2
S11304908824BEE4AB2EA3E8BA2ECC24DD24EE24BB
S11304A0FF2400E010E0222D332D442D552D662D20
S11304B0772D882D90E00E94DC162A833B834C83A1
S11304C05D836E837F8388879987822E932EA42EE3
S11304D0B52E2401350100E20E94DA17A22EB32EB4
S11304E0C42ED52EA301920156954795379527958D
S11304F02A0D3B1D4C1D5D1D57FF05C05F772F5F07
S11305003F4F4F4F5F4F2093580130935901409311
S11305105A0150935B01E9818E2F99278FBFCA013D
S1130520B90129960FB6F894DEBF0FBECDBFDF9197
S1130530CF911F910F91FF90EF90DF90CF90BF90DC
S1130540AF909F908F907F906F905F904F903F906F
S11305502F9008958FB7F8946091790170917A0182
S11305602CB53DB506B602FE04C06F5F7F4F2CB5B7
S11305703DB599278FBF88279927CB017727662711
S113058044275527622B732B842B952B0895EF92C8
S1130590FF920F931F930E94AA027B018C0120916A
S11305A06201309163014091640150916501809131
S11305B05D0190915E01A0915F01B0916001820F95
S11305C0931FA41FB51FE216F3060407150730F0A6
S11305D082179307A407B50758F005C0821793073D
S11305E0A407B507E0F5E816F9060A071B07B8F5EE
S11305F09C01AD012E193F09400B510B213060E8DD
S1130600360760E0460760E0560768F180E090E84E
S1130610A0E0B0E0E80EF91E0A1F1B1FE092620181
S1130620F0926301009364011093650180E090E807
S1130630AFEFBFEFE80EF91E0A1F1B1F2050304812
S11306404040504020935D0130935E0140935F0130
S11306505093600120E030E840E050E014C020E016
S113066030E040E050E08093620190936301A093F6
S11306706401B093650110925D0110925E011092C5
S11306805F0110926001A901B7012CB53DB5C90104
S11306908E199F0903968417950720F0B9016D5FA1
S11306A07F4F02C0640F751F6115710511F461E07D
S11306B070E0615070407BBD6ABD80E186BF87B742
S11306C0806187BF1F910F91FF90EF9008950F9362
S11306D01F930FB7F894112760936201709363011D
S11306E0809364019093650120935D0130935E01D2
S11306F040935F01509360010E94C7020FBF1F9196
S11307000F91089597B79F7D97BF90E296BF882376
S113071019F08EB5806402C08EB58F7B8EBD87B70D
S1130720806287BF80E090E008957FB7F89462B755
S11307302091210130912201409123015091240103
S113074006B601FE0FC081B792B7280F311D411DB7
S1130750511D2F5F3F4F4F4F5F4F290F311D411DDB
S1130760511D04C0260F311D411D511D872F99278E
S11307708FBFCA01B9010895DF92EF92FF920F93E0
S11307801F938FB7F894282F3327D22E91B782B7AF
S113079046B7981711F041FF02C02FBF6AC080917D
S11307A074018823E1F10E949503E090AB01F0907D
S11307B0AC010091AD011091AE0120913301309153
S11307C0340140913501509136016E197F09800B37
S11307D0910B621773078407950720F01092740138
S11307E071E01EC02E0D3F1D401F511F809121013D
S11307F090912201A0912301B0912401281B390B6F
S11308004A0B5B0B273E31054105510540F4822F0D
S1130810223010F070E005C070E082E002C070E0A9
S113082086EE682F615000B601FCFDCF82B76817D1
S113083009F46F5F2091210130912201409123013D
S113084050912401DA01C9010196A11DB11D860F41
S1130850911DA11DB11D82179307A407B50710F4BC
S1130860622F609561BFDFBE772319F080E00E949C
S11308703D011F910F91FF90EF90DF900895AFB766
S1130880F894BB27E1E0E09374016093AB017093AB
S1130890AC018093AD019093AE012093330130936A
S11308A034014093350150933601AFBF0E94BC031D
S11308B00895AF92BF92CF92DF92EF92FF920F937F
S11308C01F93CF93DF93CDB7DEB728970FB6F89475
S11308D0DEBF0FBECDBF20E070E0E0910001F091DB
S11308E0010132E14DE65CE46FE4809101019E2F49
S11308F028960FB6F894DEBF0FBECDBFDF91CF911F
S11309001F910F91FF90EF90DF90CF90BF90AF9029
S113091008951F920F920FB60F9211248F9383B7ED
S113092083BF00B600FCFDCF8F910F900FBE0F90D8
S11309301F90189578941F920F920FB60F9211245E
S11309400F900FBE0F901F90189578941F920F92DE
S11309500FB60F9211240F900FBE0F901F90189591
S113096078941F920F920FB60F9211242F933F93F6
S11309708F939F932FB7F8943327809179019091A7
S11309807A01019690937A01809379012FBF9F9108
S11309908F913F912F910F900FBE0F901F9018953C
S11309A01F920F920FB60F9211240F900FBE0F904B
S11309B01F9018951F920F920FB60F9211240F904B
S11309C00FBE0F901F9018951F920F920FB60F92A3
S11309D011240F900FBE0F901F9018951F920F9225
S11309E00FB60F9211240F900FBE0F901F90189501
S11309F01F920F920FB60F9211240F900FBE0F90FB
S1130A001F9018951F920F920FB60F9211240F90FA
S1130A100FBE0F901F9018951F920F920FB60F9252
S1130A2011240F900FBE0F901F9018951F920F92D4
S1130A300FB60F9211242F933F934F935F936F93AD
S1130A407F938F939F93AF93BF93EF93FF9383B75A
S1130A5083BF00B600FCFDCF81B799270196AA2772
S1130A60BB27209121013091220140912301509113
S1130A702401280F391F4A1F5B1F20932101309343
S1130A802201409323015093240178940E94BC03D3
S1130A90FF91EF91BF91AF919F918F917F916F9152
S1130AA05F914F913F912F910F900FBE0F901F9028
S1130AB01895EF920F931F93AE2D99E0899FF00143
S1130AC01124E558FE4F408351836283738304836A
S1130AD0158326833783A17080858E7F8A2B82605D
S1130AE0808781E00E943D011F910F91EF9008954E
S1130AF0AF92BF92CF92DF92EF92FF920F931F9328
S1130B00F82E5A016B010E949503AB01BC01E1E090
S1130B10EE2E960185018F2D0E9459051F910F918C
S1130B20FF90EF90DF90CF90BF90AF9008950F9318
S1130B301F93182F0FB7F89461E080E00E94B4006F
S1130B40882371F510930201809105018823A9F58A
S1130B5080911501823089F588E00CC00E94EB0079
S1130B6080911501882349F481E080931501109246
S1130B704F018AE00E943D012AC0809161018F3FAC
S1130B8031F5E0910401EE2311F11CC01092030130
S1130B9004C0FF27EF59FE4F10821092040117C0C2
S1130BA081E090E002C0880F991F1A95E2F7209126
S1130BB01401282B209314010AC080911501882365
S1130BC0E1F6CCCF809103018F3F19F7DFCF802F5F
S1130BD099278FBF80E090E01F910F9108951F9394
S1130BE083E00E9400019927182F882319F083E0DD
S1130BF00E949705812F99271F910895CF92DF9224
S1130C00EF92FF920F931F93CF93DF938C01F62EF5
S1130C106A01E22E8FB7F894C82FDD2760E080E0E8
S1130C200E94CE00882321F0CFBF80E090E01EC058
S1130C30CFBF0F0D111D802F80680E946401F82E14
S1130C4016950795802F807C0E9464010E2D0AC0A2
S1130C50EE2DFF27E01BF109EC0DFD1D80810E94A4
S1130C60640101500023A1F78F2D9927DF91CF91C3
S1130C701F910F91FF90EF90DF90CF900895CF9345
S1130C80DF93CDB7DEB72C970FB6F894DEBF0FBE57
S1130C90CDBF8FB7F894282FAE014F5F5F4FDA01B5
S1130CA0E5EBF1E088E001900D928150E1F780914D
S1130CB05301909154018987892F99278A878091BC
S1130CC06801909169018B87892F99278C872FBFA1
S1130CD02CE060E080E691E00E94FE052C960FB6C1
S1130CE0F894DEBF0FBECDBFDF91CF9108951F935F
S1130CF0CF93DF93182F8FB7F894C82FDD2760E0C8
S1130D0080E00E94CE00882321F0CFBF80E090E0F5
S1130D1005C0CFBF812F0E9464019927DF91CF9135
S1130D201F910895EF92FF920F931F93CF93DF9338
S1130D30182F7B01042F8FB7F894C82FDD2760E0AC
S1130D4080E00E94CE00882321F0CFBF80E090E0B5
S1130D5014C0CFBF1064812F992790936D018093A5
S1130D606C010E946401182F402F5527B70180E0C1
S1130D7090E00E94DE01812F9927DF91CF911F918E
S1130D800F91FF90EF900895C09860911C017091AD
S1130D901D0141E08FE30E949206089582E090E0F5
S1130DA0909349018093480181E08093520120E0AF
S1130DB030E080910201843011F421E030E0232BF3
S1130DC029F484E00E940001882319F40E94C406D7
S1130DD0089584E00E94970508951F920F920FB61C
S1130DE00F9211242F933F934F935F936F937F93AD
S1130DF08F939F93AF93BF93EF93FF938091480199
S1130E0090914901019749F482E090E0909349015F
S1130E10809348010E94CE0605C080914E018F5FE9
S1130E2080934E01FF91EF91BF91AF919F918F916C
S1130E307F916F915F914F913F912F910F900FBED2
S1130E400F901F9018951F9380911401882309F027
S1130E504BC0109102011F3F09F046C060E00E94A0
S1130E60CE00882309F440C081E08093BE018091C4
S1130E7038018823E1F11092BE0185E090E045C07D
S1130E80923069F5C09A8091030120E030E08F3FF1
S1130E9011F421E030E0232BE9F4109305018F3F96
S1130EA019F42FEF30E00DC0282F3327F901EF5943
S1130EB0FE4F8081809303018F3F11F4109304014E
S1130EC0108320934F0181E0809315018AE00E94F2
S1130ED03D0105C0109305011092150111C08091C8
S1130EE01501882369F00FC081E090E00EC0809165
S1130EF0050190911501882319F2923021F0EFCF6A
S1130F0080E00E94DF0080E090E01F9108951F932D
S1130F10CF93DF939FB7F894C92FDD271C2F9091AF
S1130F200201981721F0CFBF81E090E03AC08FEF23
S1130F3080930201309114013323F1F48FB7F894B4
S1130F4099271092AF018FBF0E942307CFBF11C012
S1130F502093020181E090E002C0880F991F4A9516
S1130F60E2F7809538233093140188E00E943D0114
S1130F701FBF80E090E015C080E065E0E32FFF270D
S1130F800E945D18292F492F5527CF01042E02C036
S1130F90959587950A94E2F780FDDACF822F8F5FCB
S1130FA0EFCFDF91CF911F9108951F93CF93DF93DC
S1130FB08FB7F894C82FDD271C2F8091480190919A
S1130FC04901892B29F484E00E948707CFBF1EC002
S1130FD01092520180914E01882311F0B79904C0F8
S1130FE00E9908C0882319F0815080934E010E9405
S1130FF0CE060BC081E090E09093490180934801B4
S113100010924E0184E00E9487071FBFDF91CF91A9
S11310101F9108950E940602C09AC09888E00E9419
S1131020770688E00E947706C09A84E00E948707CA
S11310300E94D5070895FF920F931F93CF93DF93D8
S1131040F82E8B018FB7F894C82FDD2760E080E07D
S11310500E94CE00882321F0CFBF80E090E00CC036
S1131060CFBF8F2D0E946401812F99270E946401B4
S1131070802F0E9464019927DF91CF911F910F91D6
S1131080FF9008951F931FB7F89480914D01882312
S113109019F460E070E009C060E080915502882393
S11310A009F461E081E0682777278091550188235E
S11310B019F480E090E00AC090E08091B4018823A4
S11310C009F491E081E09827892F9927762F6627E4
S11310D0770F770F770F24E0880F991F2A95E1F790
S11310E0826E9262682B792B81E10E941B08812F0A
S11310F099278FBF1F9108958FB7F894992760910E
S1131100BD018FBF85E0689FB0011124625D7E4FF1
S1131110706488E10E941B080895EF92FF921F9368
S1131120CF93DF93E0905601F0905701F70182A529
S11311309927182F882309F41FE1C09880914C0146
S1131140811749F0612F77276F717070606E706836
S113115085E10E941B0810934C01F70110818FB7A1
S1131160F894C82FDD2760E080E00E94CE00882339
S113117011F0CFBF12C0CFBF8EE390E090936D010A
S113118080936C018EE30E9464011150412F552716
S113119060E070E0C7010E94DE01DF91CF911F91F2
S11311A0FF90EF9008950F931F93CF93DF93EC017B
S11311B00FB7F89411270E947000FC018FE380831D
S11311C00FBF109253021092520261E082E00E941B
S11311D0B400882319F085E090E072C08091BF01CB
S11311E08F5F8093BF0181508B838FB7F894082F52
S11311F0112762E081E00E94CE00882329F40FBF0A
S11312000E94FF0181E05BC08FB7F894992724E026
S11312102093B0018FBFD0937301C09372010FBFAD
S1131220FE013196818129819927982F88273327B8
S1131230822B932B80729C7C8983892F99278183AD
S11312402981982F882733272164822B932B898324
S1131250892F992781831CA618A619A619AA18AA4A
S11312601FA680E88EA761E06093B30140917201EC
S1131270509173018FB7F894282F3327809116016A
S1131280909117018830910511F0019711F02FBF4B
S113129015C082E090E0909317018093160160934B
S11312A05C025093570140935601109220012FBFC6
S11312B00E94EF05882311F40E948D0880E099278D
S11312C0DF91CF911F910F910895CF93DF93DA01AE
S11312D0422F2D3118F082E090E05EC0ED018B8743
S11312E06E83872F99278F832FB7F89433278091A4
S11312F05301909154012FBFFD018483892F9927B5
S113130085832FB7F89433278091060190910701C4
S11313102FBF8887892F99278987319681812981D1
S11313209927982F8827332720643868822B932B9A
S11313308983892F99278183435F4C934D508091F2
S11313400901882359F010920901642FCD010E94EC
S1131350D3089927282F8823A9F417C0842F992705
S11313609093710180937001B0931B01A0931A01B3
S11313708CE00E943D0180910901882349F489E0B1
S113138090E00AC08FEF80930901822F992704C04F
S113139010925C0180E090E0DF91CF91089540ECE1
S11313A051E08FEF8093C6018093C70186E080935C
S11313B0CB018091770190917801892B19F5509395
S11313C078014093770182E18093C00180910C0100
S11313D08823A9F010920C0125E06FEF7FEF86E0DF
S11313E00E9465099927282F882349F081E080937A
S11313F00C011092780110927701222319F481E0F4
S113140080930E010895AF92BF92CF92DF92EF9234
S1131410FF920F931F93CF93DF935B016C01C0E0A6
S1131420D0E0EBE7F1E0608561FF88C02081318185
S113143042815381E480F58006811781D601C5017C
S1131440821B930BA40BB50B8E159F05A007B10748
S113145008F474C060FF03C06D7F608708C02E0D60
S11314603F1D401F511F2083318342835383C1306A
S113147041F0C13030F0C23061F0C33009F064C0D3
S11314802BC04AE050E060E070E083E00E94780501
S11314905BC080910F01882309F456C0809100013C
S11314A0909101018093CE01892F99278093CD01DA
S11314B080916601909167018093D001892F9927CB
S11314C08093CF0182E08093CC018CEC91E00E9468
S11314D0CF0910920F0138C00E942102209100010F
S11314E0309101012130310571F421E02093CE01C6
S11314F01092CD016093D001872F99278093CF015B
S11315002093CC0116C080916601909167018617E3
S11315109707D0F42093CE01832F99278093CD0190
S11315206093D001872F99278093CF0182E0809325
S1131530CC018CEC91E00E94CF0906C0219639962B
S1131540C530D10509F06FCF81E00E943D01DF91E4
S1131550CF911F910F91FF90EF90DF90CF90BF90AC
S1131560AF9008951F93CF93DF93182FEB01E82FCB
S1131570FF27EE0FFF1FE958FE4F118210821092D1
S11315800C01E0917701F0917801309721F080917E
S1131590510280FF0FC081E080930C0103C08EE0F4
S11315A00E943D011123C1F4C05CD140A9F4109202
S11315B00E0112C020812D50332767817727762FA3
S11315C0662786819927682B792BAF0183850E9432
S11315D06509882339F3E3CFDF91CF911F910895F3
S11315E09B0180910C01882349F4609177017091EB
S11315F078016217730711F40E94B20A08951F93C9
S1131600182F81E090E090931701809316011092B7
S113161038010E9423078FB7F8949927109310017B
S11316208FBF84E00E943D011F910895CF92DF9205
S1131630EF92FF920F931F93CFB6F894DD240E948C
S11316402102DC01CB0166E470E00E9469182BE002
S1131650E22EF12CE80EF91EF0925902E0925802A3
S11316600E94AA0200271127A80197010E9467037C
S1131670CFBE1F910F91FF90EF90DF90CF90089510
S11316801F93CF93DF938FB7F894C82FDD271C2FB8
S113169080911601909117010897C9F489E00E947E
S11316A0770683E00E948707C09A81E090E09093D8
S11316B01701809316018FB7F894992723E020939C
S11316C010018FBF84E00E943D01CFBF30C0C0989D
S11316D080915C02882311F085E001C084E00E94BF
S11316E0770683FD09C080E00E94770683FF04C06B
S11316F085E090E020E003C083E090E021E0909357
S1131700170180931601C09A1FBF222341F0109243
S1131710200183E00E9487070E94160B08C00E94E4
S1131720AA0220E431E040E050E00E946703DF9128
S1131730CF911F910895EF92FF920F931F93CF9330
S1131740DF938B0180916C0190916D0186FF40C104
S11317508F7B8F3309F08EC1C0911C01D0911D0184
S1131760588150934A0180914801909149018530F4
S1131770910509F443C08630910509F48AC00297A3
S113178009F01FC185E090E09093490180934801DE
S113179040913701852F99270196242F3327281745
S11317A039074CF1B79906C00E9904C0451B415046
S11317B04093370140914A014A32E8F44423A1F0AE
S11317C0BE016F5F7F4F483018F047E050E007C01C
S11317D086E090E09093490180934801552780E08A
S11317E090E00E94DE0146C110925201C09A84E04A
S11317F00E948707E3C00E940A083CC186E090E08B
S1131800909349018093480180915501882309F4FC
S113181039C08091B4018823A9F5898185FF32C03C
S11318208F814E812FB7F8943327609168017091AE
S113183069012FBF9927982F88275527842B952B2B
S11318408617970759F08F812E819927982F88271B
S11318503327822B932B8F5F9F4FA1F4898187704D
S1131860813081F4C09AC0988AE00E947706C09AB9
S1131870C09840914A0147502896BE018FE30E94C8
S11318809206F8C040914A01475055272896BE0158
S1131890A6CFC09A80914E01882339F484E00E9437
S11318A0870780914E01882311F0B7990AC00E9BD7
S11318B008C090914C02992321F080914A018B3009
S11318C038F480911C0190911D010E9412023DC0C8
S11318D0913001F5E0915002FF27EE0FFF1FEE0F4C
S11318E0FF1FE850FE4F2081318142815381E091F6
S11318F01C01F0911D0121ABBB27A52F942F832F31
S113190080ABCA01AA27BB2787A7252F33274427E3
S1131910552726A7809150029927019668E070E028
S11319200E947D188093500280914C0281508093D4
S11319304C02882351F080911C0190911D010E945A
S113194012021092500210924C0280914A01FE0140
S1131950E80FF11D808187FF31C0012B79F1698186
S11319606770E0911C01F0911D01623019F5A0919E
S11319705601B0915701109709F180911601909189
S113198017010797D9F4ED019B8183819817B1F46E
S113199087B78F7E87BF908181E08CA7E90FF11D07
S11319A08291319688A780818F7789A780E00E94F1
S11319B0FF0A04C0613011F48BE02AC00E94D507ED
S11319C059C010925201C09A84E00E94870752C005
S11319D08E3309F04FC0C09A80911601909117017F
S11319E00897C9F4C09889E00E947706C09A83E0FA
S11319F00E94870781E090E090931701809316017D
S1131A008FB7F894992723E0209310018FBF84E0C7
S1131A100E943D012FC080915C02882349F484E038
S1131A2090E090931701809316010E94400B22C00E
S1131A3083E00E94870783E090E0909317018093EE
S1131A4016010E942102DC01CB0166E371E00E94D1
S1131A5069183BE0E32EF12CE80EF91EF0923201F6
S1131A60E09231010E94AA0200271127A8019701E0
S1131A700E946703DF91CF911F910F91FF90EF9028
S1131A8008951F920F920FB60F9211242F933F9334
S1131A904F935F936F937F938F939F93AF93BF9372
S1131AA0EF93FF932FB1E091A801F091A901309732
S1131AB039F08091750190917601E80FF91F208328
S1131AC080917501909176010196909376018093AF
S1131AD0750180E00E94E50040911E0150911F01B4
S1131AE080917501909176018417950718F40E94EE
S1131AF070011CC06091A8017091A90180915602E7
S1131B00909157021092A9011092A80110925702C5
S1131B101092560210921F0110921E01109276012B
S1131B20109275012FB120E00E949B0BFF91EF9161
S1131B30BF91AF919F918F917F916F915F914F91E1
S1131B403F912F910F900FBE0F901F90189578948E
S1131B501F920F920FB60F9211242F923F924F9221
S1131B605F926F927F928F929F92AF92BF92CF9229
S1131B70DF92EF92FF920F931F932F933F934F9314
S1131B805F936F937F938F939F93AF93BF93CF9301
S1131B90DF93EF93FF93C6B5D7B58FB7F894282E8C
S1131BA00E94AA029B012C1B3D0B442755272B01A5
S1131BB03C01421A530A640A750A809116019091F5
S1131BC017018530910521F0069709F0E0C0BFC0E8
S1131BD086E090E0909317018093160131E0332E54
S1131BE0309251011092180180E00E948203E0912A
S1131BF05601F091570141AABB27A72D962D852D9B
S1131C0080ABC301AA27BB2787A7872D9927AA27BB
S1131C10BB2786A7E0915601F091570185A588233B
S1131C2009F484C06081655077274F01860E971EA2
S1131C30F4012081E1808281A3809927AA27BB2710
S1131C40BA2FA92F982F8827332744275527522F97
S1131C50442733272227FF24002711278701FF2445
S1131C60EE242E293F29402B512BBB24CC24DD24E8
S1131C702A293B294C295D29822B932BA42BB52B94
S1131C8084199509A609B7098383292F3A2F4B2F65
S1131C90552722839D014427552721838B2F99277C
S1131CA0AA27BB278083C09824E0A40180E090E0A9
S1131CB00E94FE05C09AF4012081E1808281A38004
S1131CC09927AA27BB27BA2FA92F982F882733270C
S1131CD044275527522F442733272227FF24002740
S1131CE011278701FF24EE242E293F29402B512B55
S1131CF0BB24CC24DD242A293B294C295D29822BB1
S1131D00932BA42BB52B840D951DA61DB71D838382
S1131D10292F3A2F4B2F552722839D0144275527DE
S1131D2021838B2F9927AA27BB278083E091560113
S1131D30F0915701818185FF02C03092380183E020
S1131D400E94870787B78F7E87BF84997AC01092D5
S1131D50510181E00E948203E0915601F091570104
S1131D60818185FF0FC087E090E0909317018093F5
S1131D7016010E94AA0220E031E040E050E00E94F7
S1131D80670303C080E00E94FF0A849B5AC08091CD
S1131D901801882391F580915101882371F511E090
S1131DA0109351010E94820380B320914C02283089
S1131DB098F4E0915002E20FFF27E770F070EE0F05
S1131DC0FF1FEE0FFF1FE850FE4F408251826282D8
S1131DD073822F5F20934C0210931801D0936F01EC
S1131DE0C0936E0184992DC0992724E09695879518
S1131DF02A95E1F7182F117001C010E0809151016C
S1131E008130F9F4109251010E948203109218015A
S1131E101123B9F480916E0190916F01C81BD90B05
S1131E202A9778F480914C02882319F0815080938A
S1131E304C028091560190915701009711F00E9435
S1131E4012022FBEFF91EF91DF91CF91BF91AF911D
S1131E509F918F917F916F915F914F913F912F91BE
S1131E601F910F91FF90EF90DF90CF90BF90AF90B4
S1131E709F908F907F906F905F904F903F902F90A6
S1131E800F900FBE0F901F90189578941F920F9289
S1131E900FB60F9211241F932F933F934F935F9389
S1131EA06F937F938F939F93AF93BF93EF93FF931E
S1131EB087B78F7E87BF78941FB7F89480915D01B0
S1131EC090915E01A0915F01B09160010097A1051E
S1131ED0B10509F051C08091160190911701853028
S1131EE0910561F18630910530F48330910549F014
S1131EF0049781F51AC087309105F1F0089751F5E0
S1131F0014C0869B0FC084E090E0909317018093E7
S1131F1016010E94AA0227E030E040E050E00E944F
S1131F20670318C00E94160B15C00E94EF05882392
S1131F3089F40E94400B0EC080E00AC089E00E9430
S1131F40770681E00E94820383E00E94870787E08E
S1131F500E94FF0A8091110190911201019771F47E
S1131F6082E090E09093120180931101DE98DE9A52
S1131F7080E00E94970502C00E94C702812F992722
S1131F808FBFFF91EF91BF91AF919F918F917F91FF
S1131F906F915F914F913F912F911F910F900FBEC1
S1131FA00F901F90189561E081E00E94B40088238F
S1131FB0E9F48FB7F894282F332780911101909179
S1131FC01201892B11F02FBF20C081E090E0909383
S1131FD01201809311012FBFDD9A0E94AA0224E10D
S1131FE030E040E050E00E9467030FC062E081E00F
S1131FF00E94CE00882319F089E090E0089561E002
S113200081E00E94CE00882319F080E090E00895DA
S113201085E090E00895AF92BF92CF92DF92EF9265
S1132020FF920F931F93CF93DF93CDB7DEB7A8979B
S11320300FB6F894DEBF0FBECDBF873009F4AEC132
S1132040883098F4833009F430C1843038F4813016
S113205009F45BC0823008F0B0C024C0853009F4B4
S11320607BC1863008F093C126C18B3009F4C3C20A
S11320708C3038F4893009F487C28A3008F0A7C25A
S1132080C6C18D3039F08D3008F458C48E3009F053
S1132090B0C49EC480915102882309F4AAC440E0CC
S11320A051E075C480914B01882361F52091F401BE
S11320B03091F5014091F6015091F701EFB7F89492
S11320C0FF276091AB017091AC018091AD019091BB
S11320D0AE01E0903301F09034010091350110918C
S11320E036016E0D7F1D801F911FEFBF2093F401F9
S11320F03093F5014093F6015093F70110924B0190
S11321000E943F040E94950343C00E9495035B0113
S11321106C018FB7F8949927109274018FBF6FEFF9
S1132120E62E6FEFF62E6FEF062F6FE7162F60E0A7
S1132130EBE7F1E0808581FF1CC080819181A28161
S1132140B381A6019501281B390B4A0B5B0BDA01FD
S1132150C9012481358146815781281B390B4A0BDB
S11321605B0B2E153F05400751071CF479018A01CA
S113217061E0399631E0E83AF307E1F6662309F4C1
S113218038C41E141F04100611062CF0C601B50134
S11321900E94030A2EC4E092F401F092F501009328
S11321A0F6011093F70181E080934B01A801970198
S11321B0C601B5010E943F041CC40FB7F89411274F
S11321C081E00E94820351E0E52EF12CF092170188
S11321D0E0921601109218011092380110924C01ED
S11321E00FBF0FB7F89411270E940602F09249011D
S11321F0E09248011092520189B78F7B89BF80E435
S113220088BF8AB780628ABF8AB78F7E8ABF89B740
S1132210806489BF0FBF8FB7F894082F112780916E
S1132220110190911201049719F483E00E9477063A
S11322300FBF0FB7F8941127C09A80E00E94870758
S11322400FBF8FB7F894992722E02093B0018FBF76
S11322508091000190910101019759F4EE2408EE58
S113226013E020E030E040E050E060E070E080E027
S113227019C01092670110926601EE2408EE13E073
S113228020E030E040E050E060E070E081E00E9457
S1132290590504E610E020E030E040E050E060E062
S11322A070E082E00E945905A4C38FB7F89499277F
S11322B01092B00171C08FB7F8949927F090100173
S11322C08FBF63E081E00E94CE00882359F10FB7ED
S11322D0F8941127109217011092160187B78F7E78
S11322E087BF87B78F7D87BF83E00E948707C09A27
S11322F00FBF0FB7F89411271092490110924801AB
S11323000E940602C09A89B78F7B89BF0FBF1092C3
S1132310120110921101DE98DD98DE9A83E00E948A
S11323203D0107C08FB7F894992722E02093B001AC
S11323308FBF00917201109173010E94FF0180917F
S1132340520290915302892B09F053C38FEF80936B
S113235009014F2DB80112C38FB7F894282F3327E2
S1132360122F80915A02882309F581E080935A0242
S11323708091110190911201049721F481E00E944F
S1132380970503C086E00E943D011FBF32C38FB78B
S1132390F894992710925A028FBF2BC38FB7F894E1
S11323A0282F332780911301882311F02FBF21C3D5
S11323B02FBF80B3992746E0969587954A95E1F714
S11323C0182F117090916A0180916B018917D9F0CF
S11323D01917C9F484E090E09093120180931101DD
S11323E08FB7F894992721E0209313018FBF60E001
S11323F070E08DE10E941B080E943F06C09AC098BD
S113240082E00E943D0110936B0187E06DC08FB79D
S1132410F8949927109102018FBF123009F467C014
S1132420133030F4112359F0113009F0E2C248C0DE
S1132430133009F476C0143009F0DBC2A2C0C0988E
S11324408FB7F894082F11278091110190911201F0
S11324500297A1F583E090E090931201809311011B
S113246068E170E08DE10E941B0881E080936A01BD
S11324701092130180B3992736E0969587953A9583
S1132480E1F78170907080936B0187E00E943D01B9
S113249081E00E9477066FE772E08CE10E941B08DE
S11324A00E947C080E94420866E57AE287E10E9465
S11324B01B086FEF70E885E10E941B080FBF99C2EB
S11324C0C09886E00E9477060E947C080E94420819
S11324D00E943F06C09AC09883E00E947706C09A83
S11324E081E00E94870786E00E943D0182C2C09875
S11324F08FB7F894082F112760E080E00E94CE0087
S1132500882311F00FBF0AC00FBF83E50E94640146
S113251080E00E94640180E00E946401C09A82E02D
S11325202DC08FB7F8949927209116018FBF2430BE
S113253039F0283041F0223001F50E948D0859C24B
S11325400E94400B56C2C09889E00E947706C09A48
S113255083E00E9487078FB7F894992721E030E041
S113256030931701209316018FBF8FB7F8949927E2
S1132570109310018FBF84E0B7CF83E00E948707D8
S113258038C20E94C40635C20FB7F894112740918F
S11325901E0150911F016091A8017091A9018091C1
S11325A05602909157021092A9011092A80110921C
S11325B057021092560210921F0110921E0110929F
S11325C076011092750120E00E949B0B77CF2FB704
S11325D0F894332780914F018093050182E0809322
S11325E015012FBF80910501882309F002C2B89A12
S11325F0C09888E079CFA0911C01B0911D011C9175
S11326009D01210F311DF9018081881F8827881FB2
S1132610FD0183A7F90180818F77FD0181A72150F6
S11326203040F9018081FD0180A7A0911C01B09187
S11326301D01FD0132818FB7F894992720914D0136
S11326408FBF222309F490C0832F992796958795ED
S113265096958795837090708230910541F58781B6
S113266046812FB7F894332760916801709169010E
S11326702FBF9927982F88275527842B952B8617AA
S1132680970719F481E090E06CC0FD0187812681F1
S113269040E050E09927982F88273327822B932BEB
S11326A08F5F9F4F11F441E050E0CA015AC0039775
S11326B009F03BC19E012F5F3F4F45EB51E088E09D
S11326C0FA010190AF01F90101929F018150C1F714
S11326D09E012F5D3F4FAE014F5F5F4F88E0FA01CF
S11326E00190AF01F90101929F018150C1F79E0150
S11326F0275F3F4FAE014F5D5F4F88E0FA010190C5
S1132700AF01F90101929F018150C1F79E012F5E33
S11327103F4FAE01475F5F4F88E0FA010190AF0180
S1132720F90101929F018150C1F79E01275E3F4F3D
S1132730AE014F5E5F4F88E0FA010190AF01F901ED
S113274001929F018150C1F748E050E0BE01675EED
S11327507F4FCD0106960E94E618892B09F0E5C04B
S113276003C0882309F4E1C01D3008F4DEC0E09002
S11327701C01F0901D01F7012281822F9927F6E0B8
S113278096958795FA95E1F7039719F468E070E058
S113279002C062E070E0822F9927969587959695FE
S11327A0879583709070039719F488E090E002C0D5
S11327B082E090E026E030E0E20EF31E20E030E01C
S11327C040E050E0F701E80FF91F8AEF9FEFE80EB1
S11327D0F91E05C08191480F511D2F5F3F4F2617E9
S11327E03707C4F3F70163818FEF809354028FB7E7
S11327F0F894782F20E030E0E5E2F1E080819181E7
S11328008417950729F48281861731F120935402A5
S11328102F5F3F4F33962430310581F77FBF90916E
S113282054023FB7F8949F3F21F080911901891712
S1132830A9F420911901822F9927FC01EE0FFF1FA3
S1132840E80FF91FEB5DFE4F5183408362832F5FD6
S11328502370209319010EC07FBF63C0892F99276D
S1132860FC01EE0FFF1FE80FF91FEB5DFE4F5183D4
S113287040836283832F99278FBF0FB7F894112762
S1132880C7010E947000FC0190810FBFF70183A56E
S1132890882309F446C09F3309F043C087814681E9
S11328A02FB7F894332760910601709107012FBF69
S11328B09927982F88275527842B952B86179707B8
S11328C059F0878126819927982F88273327822BCF
S11328D0932B8F5F9F4F29F5F7018385863009F588
S11328E08091000190910101258546853327322F7F
S11328F022275527242B352B2817390790F4848554
S1132900823079F4878520899927982F882733275F
S1132910822B932B909367018093660181E08093CF
S11329200F01F0921D01E0921C018FB7F8949927D2
S1132930109252018FBF0E94D5075BC090915C0139
S113294080910901981709F454C0909309019923BF
S1132950D1F400911A0110911B0160917001C8011A
S11329600E94D308482F5527442309F442C08FEF0F
S11329708093090160911A0170911B01F80183850C
S11329800E94F00A36C08FEF8093090132C0909103
S11329905102852F8923B9F0E42FFF27EE0FFF1F83
S11329A0E958FE4F2081318111821082852F809554
S11329B0982390935102442331F4205C3140B1F4C4
S11329C010920E0113C04F5F483098F4550FDFCFBB
S11329D080910C01E82FFF27EE0FFF1FE958FE4FEF
S11329E06081718141E00E94B20A03C0550F41E049
S11329F0CECFA8960FB6F894DEBF0FBECDBFDF9141
S1132A00CF911F910F91FF90EF90DF90CF90BF90E7
S1132A10AF90089580914D028F3FB1F0282F332756
S1132A20F901E75CFE4F808180934D028F3F11F4E2
S1132A3080935B028FEF80832F3F31F0822F0E94BF
S1132A400B1081E090E0089580E090E008951F93DA
S1132A50CF93DF93CDB7DEB7E0970FB6F894DEBF20
S1132A600FBECDBF1FB7F8944FE050E06FEF70E09A
S1132A7089E391E00E94F3188FEF80934D028093D5
S1132A805B0281E08EBD88E080BF83E083BF8CB5AC
S1132A909DB54AE72CB53DB52817390708F44150D0
S1132AA0442311F0C901F6CF92B782B78917E9F32D
S1132AB02CB53DB592B782B78917E9F38CB59DB5AE
S1132AC0821B930B409675E0969587957A95E1F76E
S1132AD090934F0280934E0213BE83B78EBD8EB582
S1132AE080BF12BE1DBC1CBC8FEF86BF86B780930F
S1132AF07C0080B7992787709070892BD1F7D29A80
S1132B00D19AD09ADA9AD99AD89A15BA8FEF84BB07
S1132B10D498DC981DBC1CBC87B7846087BF8EB575
S1132B20887F84608EBD0E940A158823E1F78FEFA9
S1132B3080935001E5E2F1E08FEF9FEF9183808372
S1132B401282339621E0E133F207C1F70E94210299
S1132B506093BF0188E192E090931D0180931C0172
S1132B608E98B89A8C988FEF809361011092AF0180
S1132B701092B0011092B1011092B201B89AD69A93
S1132B80D59A8FB7F89499272091060130910701BF
S1132B908FBF30936901209368010E94590429A7CB
S1132BA03AA74BA75CA76DA77EA78FA798ABDE01BA
S1132BB09196FE01B99688E001900D928150E1F75B
S1132BC0DE015196FE01B19688E001900D9281508C
S1132BD0E1F7DE015996FE01719688E001900D92AD
S1132BE08150E1F7A5EBB1E0FE01799688E0019010
S1132BF00D928150E1F78091080199279093540137
S1132C00809353018FE18093AA018AE18093BD01EF
S1132C100E94590429A73AA74BA75CA76DA77EA7D2
S1132C208FA798ABDE019196FE01B99688E00190DA
S1132C300D928150E1F7DE011196FE01B19688E014
S1132C4001900D928150E1F7DE011996FE01319653
S1132C5088E001900D928150E1F7A5EBB1E0FE010F
S1132C60399688E001900D928150E1F7A5EBB1E02F
S1132C70FD0137969C9180818D939083319781E0FB
S1132C80E83BF807B9F781E080934D0110925502B3
S1132C90809355011092B40180910001909101013B
S1132CA00196AA27BB278093580190935901A093BA
S1132CB05A01B0935B0180B7886080BF8BE083BF0B
S1132CC086EE81BF87B7826087BF0E94BC030E94E3
S1132CD00A158823E1F7812F99278FBF78940E94E2
S1132CE0D30F8FB7F894482F55274BC087B7992730
S1132CF083709070892B19F4E5E0F0E013C080B77D
S1132D00992787709070892BD1F781B792B7891B67
S1132D108C3030F082B7853F18F4E3E0F0E002C075
S1132D20E2E0F0E087B7887BC1F480917D008B7F7F
S1132D30A1F46E9912C08AB190919A00892B88717E
S1132D4061F48091740082FD08C0379B03C081E068
S1132D5090E005C085E090E002C080E090E025B7F7
S1132D608E1708F4E82FFF27E457FF4FE491237EE2
S1132D702062E22BE5BF78948895F89485B78F7D1F
S1132D8085BF80914D028F3F09F4B0CF282F3327A0
S1132D90F901E75CFE4F808180934D028F3F11F46F
S1132DA080935B028FEF80832F3F09F49FCF4FBF47
S1132DB0822F0E940B1095CFACE2B0E0E2EEF6E178
S1132DC00C94AF18222E332E442E552E662E772EB9
S1132DD0882E992EFE013196A8E01192AA95E9F762
S1132DE029823A824B825C826D827E828F829886AF
S1132DF0FE013996B8E01192BA95E9F7A986BA8628
S1132E00CB86DC86ED86FE860F87188B89819A81B6
S1132E10AB81BC8189A79AA7ABA7BCA77C018D0114
S1132E208FEF9FEFA0E0B0E0E822F9220A231B23F2
S1132E3089A59AA5ABA5BCA51D0144245524898563
S1132E409A85AB85BC858DA39EA3AFA3B8A75C016F
S1132E506D018FEF9FEFA0E0B0E0A822B922CA2253
S1132E60DB228DA19EA1AFA1B8A53D0188249924A0
S1132E70C801B701A60195010E94901869A37AA31D
S1132E808BA39CA3C801B701A40193010E949018CD
S1132E907B018C01C201B101A60195010E94901829
S1132EA05B016C01C201B101A40193010E9490185D
S1132EB03B014C01EA0CFB1C0C1D1D1D89A19AA1B0
S1132EC0ABA1BCA19D01442755272E0D3F1D401FDA
S1132ED0511F2A153B054C055D0540F480E090E048
S1132EE0A1E0B0E0680E791E8A1E9B1ECA01AA27C3
S1132EF0BB27860D971DA81DB91D8D8F9E8FAF8F83
S1132F00B8A3A9013327222789A19AA1ABA1BCA107
S1132F10A070B070280F391F4A1F5B1F298F3A8F8A
S1132F204B8F5C8FA98CBA8CCB8CDC8CED8CFE8C9B
S1132F300F8D18A1FE01719698E011929A95E9F708
S1132F40ED8AFE8A0F8B188F2D813E814F81588523
S1132F506DA17EA18FA198A50E9490183B014C0100
S1132F602D853E854F85588969A57AA58BA59CA595
S1132F700E9490182D893E894F89588D260F371F3E
S1132F80481F591F260D371D481D591D2D8B3E8B7B
S1132F904F8B588F6D887E888F88988C2A2D3B2D77
S1132FA04C2D5D2D662D772D882D992DE2E1AC9663
S1132FB00C94CB18A0E1B0E0E0EEF7E10C94AF186C
S1132FC0222E332E442E552E662E772E882E992EA1
S1132FD0002309F466C088E0FE01319611928A95B7
S1132FE0E9F729833A834B835C836D837E838F82E5
S1132FF09887E0E2E01B1E16CCF52D813E814F81BF
S11330005885602F772767FD7095DA01C901062E70
S113301004C0B695A795979587950A94D2F78D879E
S11330209E87AF87B88B04C0220F331F441F551FE0
S1133030EA95D2F789819A81AB81BC8104C0B695A7
S1133040A795979587956A95D2F7282B392B4A2B04
S11330505B2B29873A874B875C8729843A844B8486
S11330605C846D847E848F8498881BC01D861E8634
S11330701F86188A2E2F332727FD309530952195EA
S11330803F4F8D819E81AF81B88504C0B695A795C9
S1133090979587952A95D2F789879A87AB87BC87B6
S11330A0DCCF222D332D442D552D662D772D882DE3
S11330B0992DE2E160960C94CB18991B79E004C039
S11330C0991F961708F0961B881F7A95C9F7809563
S11330D00895AA1BBB1B51E107C0AA1FBB1FA6175B
S11330E0B70710F0A61BB70B881F991F5A95A9F7AD
S11330F080959095BC01CD01089597FB092E072674
S11331000AD077FD04D0E5DF06D000201AF47095CC
S113311061957F4F0895F6F7909581959F4F089597
S1133120629FD001739FF001829FE00DF11D649FA7
S1133130E00DF11D929FF00D839FF00D749FF00D33
S1133140659FF00D9927729FB00DE11DF91F639FD4
S1133150B00DE11DF91FBD01CF01112408952F9277
S11331603F924F925F926F927F928F929F92AF9213
S1133170BF92CF92DF92EF92FF920F931F93CF9360
S1133180DF93CDB7DEB7CA1BDB0B0FB6F894DEBFF7
S11331900FBECDBF09942A88398848885F846E841D
S11331A07D848C849B84AA84B984C884DF80EE8067
S11331B0FD800C811B81AA81B981CE0FD11D0FB670
S11331C0F894DEBF0FBECDBFED010895FB01DC0115
S11331D004C08D910190801921F441505040C8F7EA
S11331E0881B990B0895DC0101C06D934150504038
S10931F0E0F70895FFCF93
S11131F60100FFFFFFFF010022FFFFFF0100A9
S9030000FC
